{
  "_format": "hh-sol-artifact-1",
  "contractName": "Amidakuji",
  "sourceName": "contracts/Amidakuji.sol",
  "abi": [
    {
      "inputs": [],
      "stateMutability": "nonpayable",
      "type": "constructor"
    },
    {
      "anonymous": false,
      "inputs": [
        {
          "indexed": true,
          "internalType": "address",
          "name": "previousOwner",
          "type": "address"
        },
        {
          "indexed": true,
          "internalType": "address",
          "name": "newOwner",
          "type": "address"
        }
      ],
      "name": "OwnershipTransferred",
      "type": "event"
    },
    {
      "anonymous": false,
      "inputs": [
        {
          "indexed": true,
          "internalType": "address",
          "name": "from",
          "type": "address"
        },
        {
          "indexed": false,
          "internalType": "string",
          "name": "msg",
          "type": "string"
        }
      ],
      "name": "msgEvent",
      "type": "event"
    },
    {
      "inputs": [],
      "name": "baseStartTime",
      "outputs": [
        {
          "internalType": "uint256",
          "name": "",
          "type": "uint256"
        }
      ],
      "stateMutability": "view",
      "type": "function"
    },
    {
      "inputs": [],
      "name": "currentGameId",
      "outputs": [
        {
          "internalType": "uint256",
          "name": "",
          "type": "uint256"
        }
      ],
      "stateMutability": "view",
      "type": "function"
    },
    {
      "inputs": [
        {
          "internalType": "uint8",
          "name": "xStartPos",
          "type": "uint8"
        },
        {
          "internalType": "uint8",
          "name": "y",
          "type": "uint8"
        }
      ],
      "name": "draw",
      "outputs": [
        {
          "internalType": "bool",
          "name": "",
          "type": "bool"
        }
      ],
      "stateMutability": "nonpayable",
      "type": "function"
    },
    {
      "inputs": [
        {
          "internalType": "string",
          "name": "_name",
          "type": "string"
        },
        {
          "internalType": "uint8",
          "name": "_pos",
          "type": "uint8"
        }
      ],
      "name": "entry",
      "outputs": [
        {
          "internalType": "bool",
          "name": "",
          "type": "bool"
        }
      ],
      "stateMutability": "nonpayable",
      "type": "function"
    },
    {
      "inputs": [
        {
          "internalType": "uint256",
          "name": "_id",
          "type": "uint256"
        }
      ],
      "name": "game",
      "outputs": [
        {
          "components": [
            {
              "internalType": "uint256",
              "name": "id",
              "type": "uint256"
            },
            {
              "internalType": "uint256",
              "name": "startTime",
              "type": "uint256"
            },
            {
              "internalType": "uint256",
              "name": "endTime",
              "type": "uint256"
            },
            {
              "internalType": "address[]",
              "name": "players",
              "type": "address[]"
            },
            {
              "internalType": "string[]",
              "name": "playerNames",
              "type": "string[]"
            },
            {
              "internalType": "uint8[]",
              "name": "playerPositions",
              "type": "uint8[]"
            },
            {
              "internalType": "uint8[]",
              "name": "myLinesX",
              "type": "uint8[]"
            },
            {
              "internalType": "uint8[]",
              "name": "myLinesY",
              "type": "uint8[]"
            }
          ],
          "internalType": "struct Amidakuji.PublicGame",
          "name": "",
          "type": "tuple"
        }
      ],
      "stateMutability": "view",
      "type": "function"
    },
    {
      "inputs": [],
      "name": "owner",
      "outputs": [
        {
          "internalType": "address",
          "name": "",
          "type": "address"
        }
      ],
      "stateMutability": "view",
      "type": "function"
    },
    {
      "inputs": [],
      "name": "renounceOwnership",
      "outputs": [],
      "stateMutability": "nonpayable",
      "type": "function"
    },
    {
      "inputs": [
        {
          "internalType": "uint256",
          "name": "_id",
          "type": "uint256"
        }
      ],
      "name": "result",
      "outputs": [
        {
          "components": [
            {
              "internalType": "uint256",
              "name": "id",
              "type": "uint256"
            },
            {
              "internalType": "uint256",
              "name": "startTime",
              "type": "uint256"
            },
            {
              "internalType": "uint256",
              "name": "endTime",
              "type": "uint256"
            },
            {
              "internalType": "uint8",
              "name": "atariPosition",
              "type": "uint8"
            },
            {
              "internalType": "address",
              "name": "winner",
              "type": "address"
            },
            {
              "internalType": "address[]",
              "name": "players",
              "type": "address[]"
            },
            {
              "internalType": "uint8[]",
              "name": "playerPositions",
              "type": "uint8[]"
            },
            {
              "internalType": "string[]",
              "name": "playerNames",
              "type": "string[]"
            },
            {
              "internalType": "uint8[]",
              "name": "myLinesX",
              "type": "uint8[]"
            },
            {
              "internalType": "uint8[]",
              "name": "myLinesY",
              "type": "uint8[]"
            },
            {
              "internalType": "bool[12][]",
              "name": "amidaMap",
              "type": "bool[12][]"
            }
          ],
          "internalType": "struct Amidakuji.ResultGame",
          "name": "",
          "type": "tuple"
        }
      ],
      "stateMutability": "view",
      "type": "function"
    },
    {
      "inputs": [],
      "name": "startTimeDuration",
      "outputs": [
        {
          "internalType": "uint256",
          "name": "",
          "type": "uint256"
        }
      ],
      "stateMutability": "view",
      "type": "function"
    },
    {
      "inputs": [
        {
          "internalType": "address",
          "name": "newOwner",
          "type": "address"
        }
      ],
      "name": "transferOwnership",
      "outputs": [],
      "stateMutability": "nonpayable",
      "type": "function"
    }
  ],
  "bytecode": "0x608060405260b460035534801561001557600080fd5b5061001f33610031565b60006001556363606180600255610081565b600080546001600160a01b038381166001600160a01b0319831681178455604051919092169283917f8be0079c531659141344cd1fd0a4f28419497f9722a3daafe3b4186f6b6457e09190a35050565b611e18806100906000396000f3fe608060405234801561001057600080fd5b506004361061009e5760003560e01c80637ac0aa9f116100665780637ac0aa9f146101155780638da5cb5b14610128578063cddbe72914610143578063f2fde38b14610163578063f7c28dad1461017657600080fd5b80630f7503c9146100a35780633c594059146100bf578063536a3ddc146100df578063638d4788146100e8578063715018a61461010b575b600080fd5b6100ac60025481565b6040519081526020015b60405180910390f35b6100d26100cd366004611801565b61017f565b6040516100b69190611986565b6100ac60015481565b6100fb6100f6366004611aa4565b6104c8565b60405190151581526020016100b6565b61011361092d565b005b6100fb610123366004611aed565b610941565b6000546040516001600160a01b0390911681526020016100b6565b610156610151366004611801565b610caf565b6040516100b69190611ba6565b610113610171366004611c58565b610f2b565b6100ac60035481565b6101e8604051806101600160405280600081526020016000815260200160008152602001600060ff16815260200160006001600160a01b031681526020016060815260200160608152602001606081526020016060815260200160608152602001606081525090565b600354600083815260046020526040902060010154429161020891611c9e565b1061024e5760405162461bcd60e51b815260206004820152601160248201527011d85b59481a5cc81b9bdd08195b991959607a1b60448201526064015b60405180910390fd5b60008061025a84610fa4565b6040805161016081018252600088815260046020818152848320805485526001810154828601526002810154958501959095528a83525260039092015460ff16606082015292945090925090608081016102b38761114d565b6001600160a01b031681526020016004600088815260200190815260200160002060040180548060200260200160405190810160405280929190818152602001828054801561032b57602002820191906000526020600020905b81546001600160a01b0316815260019091019060200180831161030d575b50505050508152602001600460008881526020019081526020016000206005018054806020026020016040519081016040528092919081815260200182805480156103b357602002820191906000526020600020906000905b825461010083900a900460ff168152602060019283018181049485019490930390920291018084116103845790505b5050505050815260200160046000888152602001908152602001600020600601805480602002602001604051908101604052809291908181526020016000905b8282101561049f57838290600052602060002001805461041290611cb6565b80601f016020809104026020016040519081016040528092919081815260200182805461043e90611cb6565b801561048b5780601f106104605761010080835404028352916020019161048b565b820191906000526020600020905b81548152906001019060200180831161046e57829003601f168201915b5050505050815260200190600101906103f3565b5050505081526020018481526020018381526020016104bd87611313565b905295945050505050565b6001805460035460008281526004602052604081209093015442916104ec91611c9e565b1161052f5760405162461bcd60e51b815260206004820152601360248201527211d85b59481a5cc81b9bdd081cdd185c9d1959606a1b6044820152606401610245565b6000805b600083815260046020819052604090912001548110156105a65760008381526004602081905260409091200180543391908390811061057457610574611cf1565b6000918252602090912001546001600160a01b0316141561059457600191505b8061059e81611d07565b915050610533565b50806105e55760405162461bcd60e51b815260206004820152600e60248201526d446f6573206e6f7420656e74727960901b6044820152606401610245565b60018560ff16101580156105fd575060058560ff1611155b61063e5760405162461bcd60e51b815260206004820152601260248201527124b73b30b634b2103c102837b9b4ba34b7b760711b6044820152606401610245565b60018460ff16101580156106565750600c8460ff1611155b6106975760405162461bcd60e51b815260206004820152601260248201527124b73b30b634b2103c902837b9b4ba34b7b760711b6044820152606401610245565b8460ff16600114806106ac57508460ff166003145b806106ba57508460ff166005145b15610716576106ca600285611d22565b60ff166001146107115760405162461bcd60e51b815260206004820152601260248201527124b73b30b634b2103c903837b9b4ba34b7b760711b6044820152606401610245565b610766565b610721600285611d22565b60ff16156107665760405162461bcd60e51b815260206004820152601260248201527124b73b30b634b2103c903837b9b4ba34b7b760711b6044820152606401610245565b6000805b6000848152600460205260409020600701548110156107e45760008481526004602052604090206007018054339190839081106107a9576107a9611cf1565b6000918252602090912001546001600160a01b031614156107d257816107ce81611d52565b9250505b806107dc81611d07565b91505061076a565b5060028160ff16106108385760405162461bcd60e51b815260206004820152601b60248201527f416c72656164792064726177696e67203220706f736974696f6e7300000000006044820152606401610245565b60008381526004602090815260408083206008810180546001818101835591865284862085820401805460ff808f16601f94851661010090810a918202918302199093161790925560098501805480860182559089528789208882040180548f85169290951690920a9081029202199092161790556007909101805491820181558452919092200180546001600160a01b0319163390811790915590517fda36e470af650aa72ba5dd695ab4e79e320007ce4ebc2a5adf56bd1db4d5384e9061091990602080825260049082015263444f4e4560e01b604082015260600190565b60405180910390a250600195945050505050565b610935611479565b61093f60006114d3565b565b60018054600354600082815260046020526040812090930154429161096591611c9e565b101561099b576040805142602082015261099891016040516020818303038152906040528051906020012060001c611523565b90505b60005b60008281526004602081905260409091200154811015610a4c576000828152600460208190526040909120018054339190839081106109df576109df611cf1565b6000918252602090912001546001600160a01b03161415610a3a5760405162461bcd60e51b8152602060048201526015602482015274416c726561647920706c617965722065786973747360581b6044820152606401610245565b80610a4481611d07565b91505061099e565b5060005b600082815260046020526040902060050154811015610b07576000828152600460205260409020600501805460ff8616919083908110610a9257610a92611cf1565b60009182526020918290209181049091015460ff601f9092166101000a9004161415610af55760405162461bcd60e51b8152602060048201526012602482015271416c726561647920706f732065786973747360701b6044820152606401610245565b80610aff81611d07565b915050610a50565b506000610b1385611646565b10158015610b2a57506003610b2785611646565b11155b610b685760405162461bcd60e51b815260206004820152600f60248201526e13985b59481a5cc81a5b9d985b1a59608a1b6044820152606401610245565b60018360ff1610158015610b80575060068360ff1611155b610bc15760405162461bcd60e51b815260206004820152601260248201527124b73b30b634b2103c102837b9b4ba34b7b760711b6044820152606401610245565b600081815260046020818152604083209182018054600181810183559185528285200180546001600160a01b03191633179055600583018054808301825590855282852083820401805460ff808b16601f9094166101000a938402930219169190911790556006909201805492830181558352918290208651610c4c93919092019190870190611749565b50336001600160a01b03167fda36e470af650aa72ba5dd695ab4e79e320007ce4ebc2a5adf56bd1db4d5384e604051610c9d90602080825260049082015263444f4e4560e01b604082015260600190565b60405180910390a25060019392505050565b610cf760405180610100016040528060008152602001600081526020016000815260200160608152602001606081526020016060815260200160608152602001606081525090565b600080610d0384610fa4565b6040805161010081018252600088815260046020818152848320805485526001810154828601526002810154858701528b84528282529091018054855181840281018401909652808652969850949650909491936060850193929091830182828015610d9857602002820191906000526020600020905b81546001600160a01b03168152600190910190602001808311610d7a575b5050505050815260200160046000888152602001908152602001600020600601805480602002602001604051908101604052809291908181526020016000905b82821015610e84578382906000526020600020018054610df790611cb6565b80601f0160208091040260200160405190810160405280929190818152602001828054610e2390611cb6565b8015610e705780601f10610e4557610100808354040283529160200191610e70565b820191906000526020600020905b815481529060010190602001808311610e5357829003601f168201915b505050505081526020019060010190610dd8565b50505050815260200160046000888152602001908152602001600020600501805480602002602001604051908101604052809291908181526020018280548015610f0b57602002820191906000526020600020906000905b825461010083900a900460ff16815260206001928301818104948501949093039092029101808411610edc5790505b505050918352505060208101949094526040909301919091525092915050565b610f33611479565b6001600160a01b038116610f985760405162461bcd60e51b815260206004820152602660248201527f4f776e61626c653a206e6577206f776e657220697320746865207a65726f206160448201526564647265737360d01b6064820152608401610245565b610fa1816114d3565b50565b604080516002808252606082810190935282916000918160200160208202803683375050604080516002808252606082018352939450600093909250906020830190803683370190505090506000805b60008781526004602052604090206007015481101561114157600087815260046020526040902060070180543391908390811061103357611033611cf1565b6000918252602090912001546001600160a01b0316141561112f57600087815260046020526040902060080180548290811061107157611071611cf1565b90600052602060002090602091828204019190069054906101000a900460ff16848360ff16815181106110a6576110a6611cf1565b60ff90921660209283029190910182015260008881526004909152604090206009018054829081106110da576110da611cf1565b90600052602060002090602091828204019190069054906101000a900460ff16838360ff168151811061110f5761110f611cf1565b60ff909216602092830291909101909101528161112b81611d52565b9250505b8061113981611d07565b915050610ff4565b50919590945092505050565b60008181526004602052604081206003015460ff16818061116d85611313565b9050600c5b80156112525781611184600186611d72565b8151811061119457611194611cf1565b60200260200101516001826111a99190611d72565b600c81106111b9576111b9611cf1565b60200201511515600114156111da576111d3846001611c9e565b9350611240565b6002841061124057816111ee600286611d72565b815181106111fe576111fe611cf1565b60200260200101516001826112139190611d72565b600c811061122357611223611cf1565b60200201511515600114156112405761123d600185611d72565b93505b8061124a81611d89565b915050611172565b5060005b60008681526004602052604090206005015481101561130957600086815260046020526040902060050180548591908390811061129557611295611cf1565b60009182526020918290209181049091015460ff601f9092166101000a90041614156112f7576000868152600460208190526040909120018054829081106112df576112df611cf1565b6000918252602090912001546001600160a01b031692505b8061130181611d07565b915050611256565b5090949350505050565b60408051600680825260e0820190925260609160009190816020015b6113376117cd565b81526020019060019003908161132f57905050905060005b60008481526004602052604090206007015481101561147257600084815260046020526040812060080180548390811061138b5761138b611cf1565b6000918252602080832081830401548884526004909152604083206009018054601f9093166101000a90910460ff16935090849081106113cd576113cd611cf1565b90600052602060002090602091828204019190069054906101000a900460ff1690508160ff16600014158015611405575060ff811615155b1561145d576001846114178285611da0565b60ff168151811061142a5761142a611cf1565b602002602001015160018361143f9190611da0565b60ff16600c811061145257611452611cf1565b911515602090920201525b5050808061146a90611d07565b91505061134f565b5092915050565b6000546001600160a01b0316331461093f5760405162461bcd60e51b815260206004820181905260248201527f4f776e61626c653a2063616c6c6572206973206e6f7420746865206f776e65726044820152606401610245565b600080546001600160a01b038381166001600160a01b0319831681178455604051919092169283917f8be0079c531659141344cd1fd0a4f28419497f9722a3daafe3b4186f6b6457e09190a35050565b600180546000908152600460205260408120909101548061154357506002545b600060015b620186a08110156115975742816003546115629190611dc3565b61156d906001611c9e565b6115779085611c9e565b111561158557809150611597565b8061158f81611d07565b915050611548565b50600180549060006115a883611d07565b90915550506001546000818152600460205260409020556003546115cc9082611dc3565b6115d69083611c9e565b60018054600090815260046020526040902001556003546115f78183611dc3565b6116019084611c9e565b61160b9190611c9e565b600180546000908152600460205260408082206002019390935581548152919091206003908101805460ff1916909117905554949350505050565b8051600090819081905b8082101561174057600085838151811061166c5761166c611cf1565b01602001516001600160f81b0319169050600160ff1b81101561169b57611694600184611c9e565b925061172d565b600760fd1b6001600160f81b0319821610156116bc57611694600284611c9e565b600f60fc1b6001600160f81b0319821610156116dd57611694600384611c9e565b601f60fb1b6001600160f81b0319821610156116fe57611694600484611c9e565b603f60fa1b6001600160f81b03198216101561171f57611694600584611c9e565b61172a600684611c9e565b92505b508261173881611d07565b935050611650565b50909392505050565b82805461175590611cb6565b90600052602060002090601f01602090048101928261177757600085556117bd565b82601f1061179057805160ff19168380011785556117bd565b828001600101855582156117bd579182015b828111156117bd5782518255916020019190600101906117a2565b506117c99291506117ec565b5090565b604051806101800160405280600c906020820280368337509192915050565b5b808211156117c957600081556001016117ed565b60006020828403121561181357600080fd5b5035919050565b600081518084526020808501945080840160005b838110156118535781516001600160a01b03168752958201959082019060010161182e565b509495945050505050565b600081518084526020808501945080840160005b8381101561185357815160ff1687529582019590820190600101611872565b600082825180855260208086019550808260051b8401018186016000805b8581101561191457601f1980888603018b5283518051808752845b818110156118e5578281018901518882018a015288016118ca565b818111156118f5578589838a0101525b509b87019b601f019091169490940185019350918401916001016118af565b509198975050505050505050565b60008151808452602080850194508084016000805b8481101561197a57825188835b600c811015611963578251151582529186019190860190600101611944565b505050610180979097019691830191600101611937565b50959695505050505050565b60208152815160208201526020820151604082015260408201516060820152600060608301516119bb608084018260ff169052565b5060808301516001600160a01b03811660a08401525060a08301516101608060c08501526119ed61018085018361181a565b915060c0850151601f19808685030160e0870152611a0b848361185e565b935060e08701519150610100818786030181880152611a2a8584611891565b945080880151925050610120818786030181880152611a49858461185e565b945080880151925050610140818786030181880152611a68858461185e565b908801518782039092018488015293509050611a848382611922565b9695505050505050565b803560ff81168114611a9f57600080fd5b919050565b60008060408385031215611ab757600080fd5b611ac083611a8e565b9150611ace60208401611a8e565b90509250929050565b634e487b7160e01b600052604160045260246000fd5b60008060408385031215611b0057600080fd5b823567ffffffffffffffff80821115611b1857600080fd5b818501915085601f830112611b2c57600080fd5b813581811115611b3e57611b3e611ad7565b604051601f8201601f19908116603f01168101908382118183101715611b6657611b66611ad7565b81604052828152886020848701011115611b7f57600080fd5b826020860160208301376000602084830101528096505050505050611ace60208401611a8e565b6020815281516020820152602082015160408201526040820151606082015260006060830151610100806080850152611be361012085018361181a565b91506080850151601f19808685030160a0870152611c018483611891565b935060a08701519150808685030160c0870152611c1e848361185e565b935060c08701519150808685030160e0870152611c3b848361185e565b935060e0870151915080868503018387015250611a84838261185e565b600060208284031215611c6a57600080fd5b81356001600160a01b0381168114611c8157600080fd5b9392505050565b634e487b7160e01b600052601160045260246000fd5b60008219821115611cb157611cb1611c88565b500190565b600181811c90821680611cca57607f821691505b60208210811415611ceb57634e487b7160e01b600052602260045260246000fd5b50919050565b634e487b7160e01b600052603260045260246000fd5b6000600019821415611d1b57611d1b611c88565b5060010190565b600060ff831680611d4357634e487b7160e01b600052601260045260246000fd5b8060ff84160691505092915050565b600060ff821660ff811415611d6957611d69611c88565b60010192915050565b600082821015611d8457611d84611c88565b500390565b600081611d9857611d98611c88565b506000190190565b600060ff821660ff841680821015611dba57611dba611c88565b90039392505050565b6000816000190483118215151615611ddd57611ddd611c88565b50029056fea2646970667358221220195af75fea33dd8a0ddf9513aee16b10e5f3b3f881b73927c03471aaa68cf34064736f6c634300080a0033",
  "linkReferences": {},
  "deployedLinkReferences": {}
}