{
  "_format": "hh-sol-artifact-1",
  "contractName": "Amidakuji",
  "sourceName": "contracts/Amidakuji.sol",
  "abi": [
    {
      "inputs": [],
      "stateMutability": "nonpayable",
      "type": "constructor"
    },
    {
      "anonymous": false,
      "inputs": [
        {
          "indexed": true,
          "internalType": "address",
          "name": "previousOwner",
          "type": "address"
        },
        {
          "indexed": true,
          "internalType": "address",
          "name": "newOwner",
          "type": "address"
        }
      ],
      "name": "OwnershipTransferred",
      "type": "event"
    },
    {
      "anonymous": false,
      "inputs": [
        {
          "indexed": true,
          "internalType": "address",
          "name": "from",
          "type": "address"
        },
        {
          "indexed": false,
          "internalType": "string",
          "name": "msg",
          "type": "string"
        }
      ],
      "name": "msgEvent",
      "type": "event"
    },
    {
      "inputs": [],
      "name": "baseStartTime",
      "outputs": [
        {
          "internalType": "uint256",
          "name": "",
          "type": "uint256"
        }
      ],
      "stateMutability": "view",
      "type": "function"
    },
    {
      "inputs": [],
      "name": "currentGameId",
      "outputs": [
        {
          "internalType": "uint256",
          "name": "",
          "type": "uint256"
        }
      ],
      "stateMutability": "view",
      "type": "function"
    },
    {
      "inputs": [
        {
          "internalType": "uint8",
          "name": "xStartPos1",
          "type": "uint8"
        },
        {
          "internalType": "uint8",
          "name": "y1",
          "type": "uint8"
        },
        {
          "internalType": "uint8",
          "name": "xStartPos2",
          "type": "uint8"
        },
        {
          "internalType": "uint8",
          "name": "y2",
          "type": "uint8"
        }
      ],
      "name": "draw",
      "outputs": [
        {
          "internalType": "bool",
          "name": "",
          "type": "bool"
        }
      ],
      "stateMutability": "nonpayable",
      "type": "function"
    },
    {
      "inputs": [
        {
          "internalType": "string",
          "name": "_name",
          "type": "string"
        },
        {
          "internalType": "uint8",
          "name": "_pos",
          "type": "uint8"
        }
      ],
      "name": "entry",
      "outputs": [
        {
          "internalType": "bool",
          "name": "",
          "type": "bool"
        }
      ],
      "stateMutability": "nonpayable",
      "type": "function"
    },
    {
      "inputs": [
        {
          "internalType": "uint256",
          "name": "_id",
          "type": "uint256"
        }
      ],
      "name": "game",
      "outputs": [
        {
          "components": [
            {
              "internalType": "uint256",
              "name": "id",
              "type": "uint256"
            },
            {
              "internalType": "uint256",
              "name": "startTime",
              "type": "uint256"
            },
            {
              "internalType": "uint256",
              "name": "endTime",
              "type": "uint256"
            },
            {
              "internalType": "address[]",
              "name": "players",
              "type": "address[]"
            },
            {
              "internalType": "string[]",
              "name": "playerNames",
              "type": "string[]"
            },
            {
              "internalType": "uint8[]",
              "name": "playerPositions",
              "type": "uint8[]"
            },
            {
              "internalType": "uint8[]",
              "name": "myLinesX",
              "type": "uint8[]"
            },
            {
              "internalType": "uint8[]",
              "name": "myLinesY",
              "type": "uint8[]"
            }
          ],
          "internalType": "struct Amidakuji.PublicGame",
          "name": "",
          "type": "tuple"
        }
      ],
      "stateMutability": "view",
      "type": "function"
    },
    {
      "inputs": [],
      "name": "isHeld",
      "outputs": [
        {
          "internalType": "bool",
          "name": "",
          "type": "bool"
        }
      ],
      "stateMutability": "view",
      "type": "function"
    },
    {
      "inputs": [],
      "name": "owner",
      "outputs": [
        {
          "internalType": "address",
          "name": "",
          "type": "address"
        }
      ],
      "stateMutability": "view",
      "type": "function"
    },
    {
      "inputs": [],
      "name": "renounceOwnership",
      "outputs": [],
      "stateMutability": "nonpayable",
      "type": "function"
    },
    {
      "inputs": [
        {
          "internalType": "uint256",
          "name": "_id",
          "type": "uint256"
        }
      ],
      "name": "result",
      "outputs": [
        {
          "components": [
            {
              "internalType": "uint256",
              "name": "id",
              "type": "uint256"
            },
            {
              "internalType": "uint256",
              "name": "startTime",
              "type": "uint256"
            },
            {
              "internalType": "uint256",
              "name": "endTime",
              "type": "uint256"
            },
            {
              "internalType": "uint8",
              "name": "atariPosition",
              "type": "uint8"
            },
            {
              "internalType": "address",
              "name": "winner",
              "type": "address"
            },
            {
              "internalType": "address[]",
              "name": "players",
              "type": "address[]"
            },
            {
              "internalType": "uint8[]",
              "name": "playerPositions",
              "type": "uint8[]"
            },
            {
              "internalType": "string[]",
              "name": "playerNames",
              "type": "string[]"
            },
            {
              "internalType": "uint8[]",
              "name": "myLinesX",
              "type": "uint8[]"
            },
            {
              "internalType": "uint8[]",
              "name": "myLinesY",
              "type": "uint8[]"
            },
            {
              "internalType": "bool[12][]",
              "name": "amidaMap",
              "type": "bool[12][]"
            }
          ],
          "internalType": "struct Amidakuji.ResultGame",
          "name": "",
          "type": "tuple"
        }
      ],
      "stateMutability": "view",
      "type": "function"
    },
    {
      "inputs": [],
      "name": "startTimeDuration",
      "outputs": [
        {
          "internalType": "uint256",
          "name": "",
          "type": "uint256"
        }
      ],
      "stateMutability": "view",
      "type": "function"
    },
    {
      "inputs": [
        {
          "internalType": "address",
          "name": "newOwner",
          "type": "address"
        }
      ],
      "name": "transferOwnership",
      "outputs": [],
      "stateMutability": "nonpayable",
      "type": "function"
    }
  ],
  "bytecode": "0x608060405260b460035534801561001557600080fd5b5061001f33610031565b60006001556363606180600255610081565b600080546001600160a01b038381166001600160a01b0319831681178455604051919092169283917f8be0079c531659141344cd1fd0a4f28419497f9722a3daafe3b4186f6b6457e09190a35050565b612139806100906000396000f3fe608060405234801561001057600080fd5b50600436106100a95760003560e01c80638da5cb5b116100715780638da5cb5b146101205780639eab19a71461013b578063be16854c14610143578063cddbe72914610156578063f2fde38b14610176578063f7c28dad1461018957600080fd5b80630f7503c9146100ae5780633c594059146100ca578063536a3ddc146100ea578063715018a6146100f35780637ac0aa9f146100fd575b600080fd5b6100b760025481565b6040519081526020015b60405180910390f35b6100dd6100d8366004611af8565b610192565b6040516100c19190611c7d565b6100b760015481565b6100fb6104db565b005b61011061010b366004611db1565b6104ef565b60405190151581526020016100c1565b6000546040516001600160a01b0390911681526020016100c1565b61011061085d565b610110610151366004611e73565b610889565b610169610164366004611af8565b610fa7565b6040516100c19190611ec7565b6100fb610184366004611f79565b611223565b6100b760035481565b6101fb604051806101600160405280600081526020016000815260200160008152602001600060ff16815260200160006001600160a01b031681526020016060815260200160608152602001606081526020016060815260200160608152602001606081525090565b600354600083815260046020526040902060010154429161021b91611fbf565b106102615760405162461bcd60e51b815260206004820152601160248201527011d85b59481a5cc81b9bdd08195b991959607a1b60448201526064015b60405180910390fd5b60008061026d8461129c565b6040805161016081018252600088815260046020818152848320805485526001810154828601526002810154958501959095528a83525260039092015460ff16606082015292945090925090608081016102c687611445565b6001600160a01b031681526020016004600088815260200190815260200160002060040180548060200260200160405190810160405280929190818152602001828054801561033e57602002820191906000526020600020905b81546001600160a01b03168152600190910190602001808311610320575b50505050508152602001600460008881526020019081526020016000206005018054806020026020016040519081016040528092919081815260200182805480156103c657602002820191906000526020600020906000905b825461010083900a900460ff168152602060019283018181049485019490930390920291018084116103975790505b5050505050815260200160046000888152602001908152602001600020600601805480602002602001604051908101604052809291908181526020016000905b828210156104b257838290600052602060002001805461042590611fd7565b80601f016020809104026020016040519081016040528092919081815260200182805461045190611fd7565b801561049e5780601f106104735761010080835404028352916020019161049e565b820191906000526020600020905b81548152906001019060200180831161048157829003601f168201915b505050505081526020019060010190610406565b5050505081526020018481526020018381526020016104d08761160b565b905295945050505050565b6104e3611771565b6104ed60006117cb565b565b60018054600354600082815260046020526040812090930154429161051391611fbf565b1015610549576040805142602082015261054691016040516020818303038152906040528051906020012060001c61181b565b90505b60005b600082815260046020819052604090912001548110156105fa5760008281526004602081905260409091200180543391908390811061058d5761058d612012565b6000918252602090912001546001600160a01b031614156105e85760405162461bcd60e51b8152602060048201526015602482015274416c726561647920706c617965722065786973747360581b6044820152606401610258565b806105f281612028565b91505061054c565b5060005b6000828152600460205260409020600501548110156106b5576000828152600460205260409020600501805460ff861691908390811061064057610640612012565b60009182526020918290209181049091015460ff601f9092166101000a90041614156106a35760405162461bcd60e51b8152602060048201526012602482015271416c726561647920706f732065786973747360701b6044820152606401610258565b806106ad81612028565b9150506105fe565b5060006106c18561193d565b101580156106d8575060036106d58561193d565b11155b6107165760405162461bcd60e51b815260206004820152600f60248201526e13985b59481a5cc81a5b9d985b1a59608a1b6044820152606401610258565b60018360ff161015801561072e575060068360ff1611155b61076f5760405162461bcd60e51b815260206004820152601260248201527124b73b30b634b2103c102837b9b4ba34b7b760711b6044820152606401610258565b600081815260046020818152604083209182018054600181810183559185528285200180546001600160a01b03191633179055600583018054808301825590855282852083820401805460ff808b16601f9094166101000a9384029302191691909117905560069092018054928301815583529182902086516107fa93919092019190870190611a40565b50336001600160a01b03167fda36e470af650aa72ba5dd695ab4e79e320007ce4ebc2a5adf56bd1db4d5384e60405161084b90602080825260049082015263444f4e4560e01b604082015260600190565b60405180910390a25060019392505050565b60018054600354600082815260046020526040812090930154429161088191611fbf565b101591505090565b6001805460035460008281526004602052604081209093015442916108ad91611fbf565b116108f05760405162461bcd60e51b815260206004820152601360248201527211d85b59481a5cc81b9bdd081cdd185c9d1959606a1b6044820152606401610258565b6000805b600083815260046020819052604090912001548110156109675760008381526004602081905260409091200180543391908390811061093557610935612012565b6000918252602090912001546001600160a01b0316141561095557600191505b8061095f81612028565b9150506108f4565b50806109a65760405162461bcd60e51b815260206004820152600e60248201526d446f6573206e6f7420656e74727960901b6044820152606401610258565b60018760ff16101580156109be575060058760ff1611155b6109ff5760405162461bcd60e51b815260206004820152601260248201527124b73b30b634b2103c102837b9b4ba34b7b760711b6044820152606401610258565b60018660ff1610158015610a175750600c8660ff1611155b610a595760405162461bcd60e51b815260206004820152601360248201527224b73b30b634b2103c98902837b9b4ba34b7b760691b6044820152606401610258565b60018560ff1610158015610a71575060058560ff1611155b610ab25760405162461bcd60e51b815260206004820152601260248201527124b73b30b634b2103c102837b9b4ba34b7b760711b6044820152606401610258565b60018460ff1610158015610aca5750600c8460ff1611155b610b0c5760405162461bcd60e51b815260206004820152601360248201527224b73b30b634b2103c99102837b9b4ba34b7b760691b6044820152606401610258565b8660ff1660011480610b2157508660ff166003145b80610b2f57508660ff166005145b15610b8c57610b3f600287612043565b60ff16600114610b875760405162461bcd60e51b815260206004820152601360248201527224b73b30b634b2103c98903837b9b4ba34b7b760691b6044820152606401610258565b610bdd565b610b97600287612043565b60ff1615610bdd5760405162461bcd60e51b815260206004820152601360248201527224b73b30b634b2103c98903837b9b4ba34b7b760691b6044820152606401610258565b8460ff1660011480610bf257508460ff166003145b80610c0057508460ff166005145b15610c5d57610c10600285612043565b60ff16600114610c585760405162461bcd60e51b815260206004820152601360248201527224b73b30b634b2103c99103837b9b4ba34b7b760691b6044820152606401610258565b610cae565b610c68600285612043565b60ff1615610cae5760405162461bcd60e51b815260206004820152601360248201527224b73b30b634b2103c99103837b9b4ba34b7b760691b6044820152606401610258565b6000805b600084815260046020526040902060070154811015610d2c576000848152600460205260409020600701805433919083908110610cf157610cf1612012565b6000918252602090912001546001600160a01b03161415610d1a5781610d1681612073565b9250505b80610d2481612028565b915050610cb2565b5060028160ff1610610d805760405162461bcd60e51b815260206004820152601b60248201527f416c72656164792064726177696e67203220706f736974696f6e7300000000006044820152606401610258565b600460008481526020019081526020016000206008018890806001815401808255809150506001900390600052602060002090602091828204019190069091909190916101000a81548160ff021916908360ff160217905550600460008481526020019081526020016000206009018790806001815401808255809150506001900390600052602060002090602091828204019190069091909190916101000a81548160ff021916908360ff160217905550600460008481526020019081526020016000206008018690806001815401808255809150506001900390600052602060002090602091828204019190069091909190916101000a81548160ff021916908360ff160217905550600460008481526020019081526020016000206009018590806001815401808255809150506001900390600052602060002090602091828204019190069091909190916101000a81548160ff021916908360ff16021790555060046000848152602001908152602001600020600701339080600181540180825580915050600190039060005260206000200160009091909190916101000a8154816001600160a01b0302191690836001600160a01b03160217905550336001600160a01b03167fda36e470af650aa72ba5dd695ab4e79e320007ce4ebc2a5adf56bd1db4d5384e604051610f9190602080825260049082015263444f4e4560e01b604082015260600190565b60405180910390a2506001979650505050505050565b610fef60405180610100016040528060008152602001600081526020016000815260200160608152602001606081526020016060815260200160608152602001606081525090565b600080610ffb8461129c565b6040805161010081018252600088815260046020818152848320805485526001810154828601526002810154858701528b8452828252909101805485518184028101840190965280865296985094965090949193606085019392909183018282801561109057602002820191906000526020600020905b81546001600160a01b03168152600190910190602001808311611072575b5050505050815260200160046000888152602001908152602001600020600601805480602002602001604051908101604052809291908181526020016000905b8282101561117c5783829060005260206000200180546110ef90611fd7565b80601f016020809104026020016040519081016040528092919081815260200182805461111b90611fd7565b80156111685780601f1061113d57610100808354040283529160200191611168565b820191906000526020600020905b81548152906001019060200180831161114b57829003601f168201915b5050505050815260200190600101906110d0565b5050505081526020016004600088815260200190815260200160002060050180548060200260200160405190810160405280929190818152602001828054801561120357602002820191906000526020600020906000905b825461010083900a900460ff168152602060019283018181049485019490930390920291018084116111d45790505b505050918352505060208101949094526040909301919091525092915050565b61122b611771565b6001600160a01b0381166112905760405162461bcd60e51b815260206004820152602660248201527f4f776e61626c653a206e6577206f776e657220697320746865207a65726f206160448201526564647265737360d01b6064820152608401610258565b611299816117cb565b50565b604080516002808252606082810190935282916000918160200160208202803683375050604080516002808252606082018352939450600093909250906020830190803683370190505090506000805b60008781526004602052604090206007015481101561143957600087815260046020526040902060070180543391908390811061132b5761132b612012565b6000918252602090912001546001600160a01b0316141561142757600087815260046020526040902060080180548290811061136957611369612012565b90600052602060002090602091828204019190069054906101000a900460ff16848360ff168151811061139e5761139e612012565b60ff90921660209283029190910182015260008881526004909152604090206009018054829081106113d2576113d2612012565b90600052602060002090602091828204019190069054906101000a900460ff16838360ff168151811061140757611407612012565b60ff909216602092830291909101909101528161142381612073565b9250505b8061143181612028565b9150506112ec565b50919590945092505050565b60008181526004602052604081206003015460ff1681806114658561160b565b9050600c5b801561154a578161147c600186612093565b8151811061148c5761148c612012565b60200260200101516001826114a19190612093565b600c81106114b1576114b1612012565b60200201511515600114156114d2576114cb846001611fbf565b9350611538565b6002841061153857816114e6600286612093565b815181106114f6576114f6612012565b602002602001015160018261150b9190612093565b600c811061151b5761151b612012565b602002015115156001141561153857611535600185612093565b93505b80611542816120aa565b91505061146a565b5060005b60008681526004602052604090206005015481101561160157600086815260046020526040902060050180548591908390811061158d5761158d612012565b60009182526020918290209181049091015460ff601f9092166101000a90041614156115ef576000868152600460208190526040909120018054829081106115d7576115d7612012565b6000918252602090912001546001600160a01b031692505b806115f981612028565b91505061154e565b5090949350505050565b60408051600680825260e0820190925260609160009190816020015b61162f611ac4565b81526020019060019003908161162757905050905060005b60008481526004602052604090206007015481101561176a57600084815260046020526040812060080180548390811061168357611683612012565b6000918252602080832081830401548884526004909152604083206009018054601f9093166101000a90910460ff16935090849081106116c5576116c5612012565b90600052602060002090602091828204019190069054906101000a900460ff1690508160ff166000141580156116fd575060ff811615155b156117555760018461170f82856120c1565b60ff168151811061172257611722612012565b602002602001015160018361173791906120c1565b60ff16600c811061174a5761174a612012565b911515602090920201525b5050808061176290612028565b915050611647565b5092915050565b6000546001600160a01b031633146104ed5760405162461bcd60e51b815260206004820181905260248201527f4f776e61626c653a2063616c6c6572206973206e6f7420746865206f776e65726044820152606401610258565b600080546001600160a01b038381166001600160a01b0319831681178455604051919092169283917f8be0079c531659141344cd1fd0a4f28419497f9722a3daafe3b4186f6b6457e09190a35050565b600180546000908152600460205260408120909101548061183b57506002545b600060015b620186a081101561188e5742611857826001611fbf565b60035461186491906120e4565b61186e9085611fbf565b111561187c5780915061188e565b8061188681612028565b915050611840565b506001805490600061189f83612028565b90915550506001546000818152600460205260409020556003546118c390826120e4565b6118cd9083611fbf565b60018054600090815260046020526040902001556003546118ee81836120e4565b6118f89084611fbf565b6119029190611fbf565b600180546000908152600460205260408082206002019390935581548152919091206003908101805460ff1916909117905554949350505050565b8051600090819081905b80821015611a3757600085838151811061196357611963612012565b01602001516001600160f81b0319169050600160ff1b8110156119925761198b600184611fbf565b9250611a24565b600760fd1b6001600160f81b0319821610156119b35761198b600284611fbf565b600f60fc1b6001600160f81b0319821610156119d45761198b600384611fbf565b601f60fb1b6001600160f81b0319821610156119f55761198b600484611fbf565b603f60fa1b6001600160f81b031982161015611a165761198b600584611fbf565b611a21600684611fbf565b92505b5082611a2f81612028565b935050611947565b50909392505050565b828054611a4c90611fd7565b90600052602060002090601f016020900481019282611a6e5760008555611ab4565b82601f10611a8757805160ff1916838001178555611ab4565b82800160010185558215611ab4579182015b82811115611ab4578251825591602001919060010190611a99565b50611ac0929150611ae3565b5090565b604051806101800160405280600c906020820280368337509192915050565b5b80821115611ac05760008155600101611ae4565b600060208284031215611b0a57600080fd5b5035919050565b600081518084526020808501945080840160005b83811015611b4a5781516001600160a01b031687529582019590820190600101611b25565b509495945050505050565b600081518084526020808501945080840160005b83811015611b4a57815160ff1687529582019590820190600101611b69565b600082825180855260208086019550808260051b8401018186016000805b85811015611c0b57601f1980888603018b5283518051808752845b81811015611bdc578281018901518882018a01528801611bc1565b81811115611bec578589838a0101525b509b87019b601f01909116949094018501935091840191600101611ba6565b509198975050505050505050565b60008151808452602080850194508084016000805b84811015611c7157825188835b600c811015611c5a578251151582529186019190860190600101611c3b565b505050610180979097019691830191600101611c2e565b50959695505050505050565b6020815281516020820152602082015160408201526040820151606082015260006060830151611cb2608084018260ff169052565b5060808301516001600160a01b03811660a08401525060a08301516101608060c0850152611ce4610180850183611b11565b915060c0850151601f19808685030160e0870152611d028483611b55565b935060e08701519150610100818786030181880152611d218584611b88565b945080880151925050610120818786030181880152611d408584611b55565b945080880151925050610140818786030181880152611d5f8584611b55565b908801518782039092018488015293509050611d7b8382611c19565b9695505050505050565b634e487b7160e01b600052604160045260246000fd5b803560ff81168114611dac57600080fd5b919050565b60008060408385031215611dc457600080fd5b823567ffffffffffffffff80821115611ddc57600080fd5b818501915085601f830112611df057600080fd5b813581811115611e0257611e02611d85565b604051601f8201601f19908116603f01168101908382118183101715611e2a57611e2a611d85565b81604052828152886020848701011115611e4357600080fd5b826020860160208301376000602084830101528096505050505050611e6a60208401611d9b565b90509250929050565b60008060008060808587031215611e8957600080fd5b611e9285611d9b565b9350611ea060208601611d9b565b9250611eae60408601611d9b565b9150611ebc60608601611d9b565b905092959194509250565b6020815281516020820152602082015160408201526040820151606082015260006060830151610100806080850152611f04610120850183611b11565b91506080850151601f19808685030160a0870152611f228483611b88565b935060a08701519150808685030160c0870152611f3f8483611b55565b935060c08701519150808685030160e0870152611f5c8483611b55565b935060e0870151915080868503018387015250611d7b8382611b55565b600060208284031215611f8b57600080fd5b81356001600160a01b0381168114611fa257600080fd5b9392505050565b634e487b7160e01b600052601160045260246000fd5b60008219821115611fd257611fd2611fa9565b500190565b600181811c90821680611feb57607f821691505b6020821081141561200c57634e487b7160e01b600052602260045260246000fd5b50919050565b634e487b7160e01b600052603260045260246000fd5b600060001982141561203c5761203c611fa9565b5060010190565b600060ff83168061206457634e487b7160e01b600052601260045260246000fd5b8060ff84160691505092915050565b600060ff821660ff81141561208a5761208a611fa9565b60010192915050565b6000828210156120a5576120a5611fa9565b500390565b6000816120b9576120b9611fa9565b506000190190565b600060ff821660ff8416808210156120db576120db611fa9565b90039392505050565b60008160001904831182151516156120fe576120fe611fa9565b50029056fea2646970667358221220f88ad1135fab7ba706d094b966be9ad4cbda2cda72c1548ba8162f9989031b5c64736f6c634300080a0033",
  "linkReferences": {},
  "deployedLinkReferences": {}
}