{
  "_format": "hh-sol-artifact-1",
  "contractName": "Amidakuji",
  "sourceName": "contracts/Amidakuji.sol",
  "abi": [
    {
      "inputs": [],
      "stateMutability": "nonpayable",
      "type": "constructor"
    },
    {
      "anonymous": false,
      "inputs": [
        {
          "indexed": true,
          "internalType": "address",
          "name": "previousOwner",
          "type": "address"
        },
        {
          "indexed": true,
          "internalType": "address",
          "name": "newOwner",
          "type": "address"
        }
      ],
      "name": "OwnershipTransferred",
      "type": "event"
    },
    {
      "inputs": [],
      "name": "baseStartTime",
      "outputs": [
        {
          "internalType": "uint256",
          "name": "",
          "type": "uint256"
        }
      ],
      "stateMutability": "view",
      "type": "function"
    },
    {
      "inputs": [],
      "name": "currentGameId",
      "outputs": [
        {
          "internalType": "uint32",
          "name": "",
          "type": "uint32"
        }
      ],
      "stateMutability": "view",
      "type": "function"
    },
    {
      "inputs": [
        {
          "internalType": "uint8",
          "name": "xStartPos",
          "type": "uint8"
        },
        {
          "internalType": "uint8",
          "name": "y",
          "type": "uint8"
        }
      ],
      "name": "draw",
      "outputs": [
        {
          "internalType": "bool",
          "name": "",
          "type": "bool"
        }
      ],
      "stateMutability": "nonpayable",
      "type": "function"
    },
    {
      "inputs": [
        {
          "internalType": "string",
          "name": "_name",
          "type": "string"
        },
        {
          "internalType": "uint8",
          "name": "_pos",
          "type": "uint8"
        }
      ],
      "name": "entry",
      "outputs": [
        {
          "internalType": "bool",
          "name": "",
          "type": "bool"
        }
      ],
      "stateMutability": "nonpayable",
      "type": "function"
    },
    {
      "inputs": [
        {
          "internalType": "uint32",
          "name": "_id",
          "type": "uint32"
        }
      ],
      "name": "game",
      "outputs": [
        {
          "components": [
            {
              "internalType": "uint32",
              "name": "id",
              "type": "uint32"
            },
            {
              "internalType": "uint256",
              "name": "startTime",
              "type": "uint256"
            },
            {
              "internalType": "address[]",
              "name": "players",
              "type": "address[]"
            },
            {
              "internalType": "string[]",
              "name": "playerNames",
              "type": "string[]"
            },
            {
              "internalType": "uint8[]",
              "name": "myLinesX",
              "type": "uint8[]"
            },
            {
              "internalType": "uint8[]",
              "name": "myLinesY",
              "type": "uint8[]"
            }
          ],
          "internalType": "struct Amidakuji.PublicGame",
          "name": "",
          "type": "tuple"
        }
      ],
      "stateMutability": "view",
      "type": "function"
    },
    {
      "inputs": [],
      "name": "owner",
      "outputs": [
        {
          "internalType": "address",
          "name": "",
          "type": "address"
        }
      ],
      "stateMutability": "view",
      "type": "function"
    },
    {
      "inputs": [],
      "name": "renounceOwnership",
      "outputs": [],
      "stateMutability": "nonpayable",
      "type": "function"
    },
    {
      "inputs": [
        {
          "internalType": "uint32",
          "name": "_id",
          "type": "uint32"
        }
      ],
      "name": "result",
      "outputs": [
        {
          "components": [
            {
              "internalType": "uint32",
              "name": "id",
              "type": "uint32"
            },
            {
              "internalType": "uint256",
              "name": "startTime",
              "type": "uint256"
            },
            {
              "internalType": "uint8",
              "name": "atariPosition",
              "type": "uint8"
            },
            {
              "internalType": "address",
              "name": "winner",
              "type": "address"
            },
            {
              "internalType": "address[]",
              "name": "players",
              "type": "address[]"
            },
            {
              "internalType": "string[]",
              "name": "playerNames",
              "type": "string[]"
            },
            {
              "internalType": "uint8[]",
              "name": "myLinesX",
              "type": "uint8[]"
            },
            {
              "internalType": "uint8[]",
              "name": "myLinesY",
              "type": "uint8[]"
            },
            {
              "internalType": "bool[6][]",
              "name": "map",
              "type": "bool[6][]"
            }
          ],
          "internalType": "struct Amidakuji.ResultGame",
          "name": "",
          "type": "tuple"
        }
      ],
      "stateMutability": "view",
      "type": "function"
    },
    {
      "inputs": [],
      "name": "startTimeDuration",
      "outputs": [
        {
          "internalType": "uint256",
          "name": "",
          "type": "uint256"
        }
      ],
      "stateMutability": "view",
      "type": "function"
    },
    {
      "inputs": [
        {
          "internalType": "address",
          "name": "newOwner",
          "type": "address"
        }
      ],
      "name": "transferOwnership",
      "outputs": [],
      "stateMutability": "nonpayable",
      "type": "function"
    }
  ],
  "bytecode": "0x60806040526201518060025534801561001757600080fd5b506100213361003e565b6000805463ffffffff60a01b1916905563635dbe8060015561008e565b600080546001600160a01b038381166001600160a01b0319831681178455604051919092169283917f8be0079c531659141344cd1fd0a4f28419497f9722a3daafe3b4186f6b6457e09190a35050565b611d258061009d6000396000f3fe608060405234801561001057600080fd5b506004361061009e5760003560e01c80638da5cb5b116100665780638da5cb5b1461012b578063ac744a2c14610146578063f2fde38b14610166578063f7c28dad14610179578063fef5016c1461018257600080fd5b80630f7503c9146100a3578063536a3ddc146100bf578063638d4788146100eb578063715018a61461010e5780637ac0aa9f14610118575b600080fd5b6100ac60015481565b6040519081526020015b60405180910390f35b6000546100d690600160a01b900463ffffffff1681565b60405163ffffffff90911681526020016100b6565b6100fe6100f936600461171b565b6101a2565b60405190151581526020016100b6565b6101166105f3565b005b6100fe610126366004611764565b610607565b6000546040516001600160a01b0390911681526020016100b6565b61015961015436600461181d565b6108d0565b6040516100b69190611948565b6101166101743660046119e0565b610abf565b6100ac60025481565b61019561019036600461181d565b610b38565b6040516100b69190611a6c565b60008054600254600160a01b90910463ffffffff1680835260036020526040832060010154909142916101d59190611b6b565b1161021d5760405162461bcd60e51b815260206004820152601360248201527211d85b59481a5cc81b9bdd081cdd185c9d1959606a1b60448201526064015b60405180910390fd5b6000805b63ffffffff8316600090815260036020819052604090912001548110156102ab57336001600160a01b0316600360008563ffffffff168152602001908152602001600020600301828154811061027957610279611b83565b6000918252602090912001546001600160a01b0316141561029957600191505b806102a381611b99565b915050610221565b50806102ea5760405162461bcd60e51b815260206004820152600e60248201526d446f6573206e6f7420656e74727960901b6044820152606401610214565b60018560ff1610158015610302575060058560ff1611155b6103435760405162461bcd60e51b815260206004820152601260248201527124b73b30b634b2103c102837b9b4ba34b7b760711b6044820152606401610214565b60018460ff161015801561035b5750600c8460ff1611155b61039c5760405162461bcd60e51b815260206004820152601260248201527124b73b30b634b2103c902837b9b4ba34b7b760711b6044820152606401610214565b8460ff16600114806103b157508460ff166003145b806103bf57508460ff166005145b1561041b576103cf600285611bca565b60ff166001146104165760405162461bcd60e51b815260206004820152601260248201527124b73b30b634b2103c903837b9b4ba34b7b760711b6044820152606401610214565b61046b565b610426600285611bca565b60ff161561046b5760405162461bcd60e51b815260206004820152601260248201527124b73b30b634b2103c903837b9b4ba34b7b760711b6044820152606401610214565b6000805b63ffffffff84166000908152600360205260409020600601548110156104f75763ffffffff841660009081526003602052604090206006018054339190839081106104bc576104bc611b83565b6000918252602090912001546001600160a01b031614156104e557816104e181611bec565b9250505b806104ef81611b99565b91505061046f565b5060028160ff161061054b5760405162461bcd60e51b815260206004820152601b60248201527f416c72656164792064726177696e67203220706f736974696f6e7300000000006044820152606401610214565b505063ffffffff16600090815260036020908152604082206007810180546001818101835591855283852084820401805460ff808b16601f94851661010090810a918202918302199093161790925560088501805480860182559088528688208782040180548b85169290951690920a908102920219909216179055600690910180548083018255908452919092200180546001600160a01b03191633179055905092915050565b6105fb610e06565b6106056000610e60565b565b60008054600160a01b900463ffffffff168082526003602052604082206001015442906106379062015180611b6b565b101561066d576040805142602082015261066a91016040516020818303038152906040528051906020012060001c610eb0565b90505b60005b6000828152600360208190526040909120015481101561071e576000828152600360208190526040909120018054339190839081106106b1576106b1611b83565b6000918252602090912001546001600160a01b0316141561070c5760405162461bcd60e51b8152602060048201526015602482015274416c726561647920706c617965722065786973747360581b6044820152606401610214565b8061071681611b99565b915050610670565b5060005b6000828152600360205260409020600401548110156107d9576000828152600360205260409020600401805460ff861691908390811061076457610764611b83565b60009182526020918290209181049091015460ff601f9092166101000a90041614156107c75760405162461bcd60e51b8152602060048201526012602482015271416c726561647920706f732065786973747360701b6044820152606401610214565b806107d181611b99565b915050610722565b5060006107e585611021565b101580156107fc575060036107f985611021565b11155b61083a5760405162461bcd60e51b815260206004820152600f60248201526e13985b59481a5cc81a5b9d985b1a59608a1b6044820152606401610214565b600081815260036020818152604083209182018054600181810183559185528285200180546001600160a01b03191633179055600483018054808301825590855282852083820401805460ff808b16601f9094166101000a9384029302191691909117905560059092018054928301815583529182902086516108c59391909201919087019061164e565b506001949350505050565b61090f6040518060c00160405280600063ffffffff16815260200160008152602001606081526020016060815260200160608152602001606081525090565b60008061091b84611124565b6040805160c08101825263ffffffff8089166000818152600360208181528683208054909516865260018501548187015292825280835292909201805485518184028101840187528181529799509597509195929493850193908301828280156109ae57602002820191906000526020600020905b81546001600160a01b03168152600190910190602001808311610990575b50505050508152602001600360008863ffffffff168152602001908152602001600020600501805480602002602001604051908101604052809291908181526020016000905b82821015610aa0578382906000526020600020018054610a1390611c0c565b80601f0160208091040260200160405190810160405280929190818152602001828054610a3f90611c0c565b8015610a8c5780601f10610a6157610100808354040283529160200191610a8c565b820191906000526020600020905b815481529060010190602001808311610a6f57829003601f168201915b5050505050815260200190600101906109f4565b5050509082525060208101949094526040909301919091525092915050565b610ac7610e06565b6001600160a01b038116610b2c5760405162461bcd60e51b815260206004820152602660248201527f4f776e61626c653a206e6577206f776e657220697320746865207a65726f206160448201526564647265737360d01b6064820152608401610214565b610b3581610e60565b50565b610b99604051806101200160405280600063ffffffff16815260200160008152602001600060ff16815260200160006001600160a01b0316815260200160608152602001606081526020016060815260200160608152602001606081525090565b60025463ffffffff83166000908152600360205260409020600101544291610bc091611b6b565b10610c015760405162461bcd60e51b815260206004820152601160248201527011d85b59481a5cc81b9bdd08195b991959607a1b6044820152606401610214565b600080610c0d84611124565b604080516101208101825263ffffffff808916600081815260036020818152868320805490951686526001850154818701528383525260029092015460ff16938301939093529395509193506060820190610c67906112e9565b6001600160a01b03168152602001600360008863ffffffff168152602001908152602001600020600301805480602002602001604051908101604052809291908181526020018280548015610ce557602002820191906000526020600020905b81546001600160a01b03168152600190910190602001808311610cc7575b50505050508152602001600360008863ffffffff168152602001908152602001600020600501805480602002602001604051908101604052809291908181526020016000905b82821015610dd7578382906000526020600020018054610d4a90611c0c565b80601f0160208091040260200160405190810160405280929190818152602001828054610d7690611c0c565b8015610dc35780601f10610d9857610100808354040283529160200191610dc3565b820191906000526020600020905b815481529060010190602001808311610da657829003601f168201915b505050505081526020019060010190610d2b565b505050508152602001848152602001838152602001610dfb8763ffffffff166114a6565b905295945050505050565b6000546001600160a01b031633146106055760405162461bcd60e51b815260206004820181905260248201527f4f776e61626c653a2063616c6c6572206973206e6f7420746865206f776e65726044820152606401610214565b600080546001600160a01b038381166001600160a01b0319831681178455604051919092169283917f8be0079c531659141344cd1fd0a4f28419497f9722a3daafe3b4186f6b6457e09190a35050565b60008054600160a01b900463ffffffff1681526003602052604081206001015480610eda57506001545b600060015b612710811015610f2d574281600254610ef89190611c47565b610f03906001611b6b565b610f0d9085611b6b565b1115610f1b57809150610f2d565b80610f2581611b99565b915050610edf565b5060008054600160a01b900463ffffffff16906014610f4b83611c66565b82546101009290920a63ffffffff81810219909316918316021790915560008054600160a01b900490911680825260036020526040909120805463ffffffff1916909117905550600254610f9f9082611c47565b610fa99083611b6b565b60008054600160a01b900463ffffffff16815260036020526040902060010155610fd48460066115f1565b610fdf906001611b6b565b60008054600160a01b9081900463ffffffff9081168352600360205260408320600201805460ff191660ff959095169490941790935590540416949350505050565b8051600090819081905b8082101561111b57600085838151811061104757611047611b83565b01602001516001600160f81b0319169050600160ff1b8110156110765761106f600184611b6b565b9250611108565b600760fd1b6001600160f81b0319821610156110975761106f600284611b6b565b600f60fc1b6001600160f81b0319821610156110b85761106f600384611b6b565b601f60fb1b6001600160f81b0319821610156110d95761106f600484611b6b565b603f60fa1b6001600160f81b0319821610156110fa5761106f600584611b6b565b611105600684611b6b565b92505b508261111381611b99565b93505061102b565b50909392505050565b604080516002808252606082810190935282916000918160200160208202803683375050604080516002808252606082018352939450600093909250906020830190803683370190505090506000805b63ffffffff87166000908152600360205260409020600601548110156112dd5763ffffffff871660009081526003602052604090206006018054339190839081106111c1576111c1611b83565b6000918252602090912001546001600160a01b031614156112cb5763ffffffff8716600090815260036020526040902060070180548290811061120657611206611b83565b90600052602060002090602091828204019190069054906101000a900460ff16848360ff168151811061123b5761123b611b83565b60ff90921660209283029190910182015263ffffffff8816600090815260039091526040902060080180548290811061127657611276611b83565b90600052602060002090602091828204019190069054906101000a900460ff16838360ff16815181106112ab576112ab611b83565b60ff90921660209283029190910190910152816112c781611bec565b9250505b806112d581611b99565b915050611174565b50919590945092505050565b60008181526003602052604081206002015460ff168180611309856114a6565b9050600c5b80156113e55781611320600186611c8a565b8151811061133057611330611b83565b60200260200101516001826113459190611c8a565b6006811061135557611355611b83565b60200201511515600114156113d35761136f600285611ca1565b1580156113845750611382600282611ca1565b155b806113ae5750611395600285611ca1565b60011480156113ae57506113aa600282611ca1565b6001145b156113c5576113be846001611b6b565b93506113d3565b6113d0600185611c8a565b93505b806113dd81611cb5565b91505061130e565b5060005b60008681526003602052604090206004015481101561149c57600086815260036020526040902060040180548591908390811061142857611428611b83565b60009182526020918290209181049091015460ff601f9092166101000a900416141561148a5760008681526003602081905260409091200180548290811061147257611472611b83565b6000918252602090912001546001600160a01b031692505b8061149481611b99565b9150506113e9565b5090949350505050565b60408051600c8082526101a0820190925260609160009190816020015b6114cb6116d2565b8152602001906001900390816114c357905050905060005b6000848152600360205260409020600601548110156115ea57600084815260036020526040812060070180548390811061151f5761151f611b83565b6000918252602080832081830401548884526003909152604083206008018054601f9093166101000a90910460ff169350908490811061156157611561611b83565b60009182526020918290209181049091015460ff601f9092166101000a90041690506001846115908285611ccc565b60ff16815181106115a3576115a3611b83565b60200260200101516001836115b89190611ccc565b60ff16600681106115cb576115cb611b83565b91151560209092020152508190506115e281611b99565b9150506114e3565b5092915050565b604080514260208201526bffffffffffffffffffffffff193360601b16918101919091526054810183905260009082906074016040516020818303038152906040528051906020012060001c6116479190611ca1565b9392505050565b82805461165a90611c0c565b90600052602060002090601f01602090048101928261167c57600085556116c2565b82601f1061169557805160ff19168380011785556116c2565b828001600101855582156116c2579182015b828111156116c25782518255916020019190600101906116a7565b506116ce9291506116f0565b5090565b6040518060c001604052806006906020820280368337509192915050565b5b808211156116ce57600081556001016116f1565b803560ff8116811461171657600080fd5b919050565b6000806040838503121561172e57600080fd5b61173783611705565b915061174560208401611705565b90509250929050565b634e487b7160e01b600052604160045260246000fd5b6000806040838503121561177757600080fd5b823567ffffffffffffffff8082111561178f57600080fd5b818501915085601f8301126117a357600080fd5b8135818111156117b5576117b561174e565b604051601f8201601f19908116603f011681019083821181831017156117dd576117dd61174e565b816040528281528860208487010111156117f657600080fd5b82602086016020830137600060208483010152809650505050505061174560208401611705565b60006020828403121561182f57600080fd5b813563ffffffff8116811461164757600080fd5b600081518084526020808501945080840160005b8381101561187c5781516001600160a01b031687529582019590820190600101611857565b509495945050505050565b600081518084526020808501808196508360051b810191508286016000805b86811015611907578385038a5282518051808752835b818110156118d7578281018901518882018a015288016118bc565b818111156118e7578489838a0101525b509a87019a601f01601f19169590950186019450918501916001016118a6565b509298975050505050505050565b600081518084526020808501945080840160005b8381101561187c57815160ff1687529582019590820190600101611929565b6020815263ffffffff8251166020820152602082015160408201526000604083015160c0606084015261197e60e0840182611843565b90506060840151601f198085840301608086015261199c8383611887565b925060808601519150808584030160a08601526119b98383611915565b925060a08601519150808584030160c0860152506119d78282611915565b95945050505050565b6000602082840312156119f257600080fd5b81356001600160a01b038116811461164757600080fd5b60008151808452602080850194508084016000805b84811015611a6057825188835b6006811015611a4a578251151582529186019190860190600101611a2b565b50505060c0979097019691830191600101611a1e565b50959695505050505050565b60208152611a8360208201835163ffffffff169052565b6020820151604082015260006040830151611aa3606084018260ff169052565b5060608301516001600160a01b03811660808401525060808301516101208060a0850152611ad5610140850183611843565b915060a0850151601f19808685030160c0870152611af38483611887565b935060c08701519150808685030160e0870152611b108483611915565b935060e08701519150610100818786030181880152611b2f8584611915565b908801518782039092018488015293509050611b4b8382611a09565b9695505050505050565b634e487b7160e01b600052601160045260246000fd5b60008219821115611b7e57611b7e611b55565b500190565b634e487b7160e01b600052603260045260246000fd5b6000600019821415611bad57611bad611b55565b5060010190565b634e487b7160e01b600052601260045260246000fd5b600060ff831680611bdd57611bdd611bb4565b8060ff84160691505092915050565b600060ff821660ff811415611c0357611c03611b55565b60010192915050565b600181811c90821680611c2057607f821691505b60208210811415611c4157634e487b7160e01b600052602260045260246000fd5b50919050565b6000816000190483118215151615611c6157611c61611b55565b500290565b600063ffffffff80831681811415611c8057611c80611b55565b6001019392505050565b600082821015611c9c57611c9c611b55565b500390565b600082611cb057611cb0611bb4565b500690565b600081611cc457611cc4611b55565b506000190190565b600060ff821660ff841680821015611ce657611ce6611b55565b9003939250505056fea2646970667358221220f063713c014baab6d3c991b2dc7e580726faec0949b68dcf4fd30d8e3a9c6b8b64736f6c634300080a0033",
  "linkReferences": {},
  "deployedLinkReferences": {}
}