{
  "_format": "hh-sol-artifact-1",
  "contractName": "Amidakuji",
  "sourceName": "contracts/Amidakuji.sol",
  "abi": [
    {
      "inputs": [],
      "stateMutability": "nonpayable",
      "type": "constructor"
    },
    {
      "anonymous": false,
      "inputs": [
        {
          "indexed": true,
          "internalType": "address",
          "name": "previousOwner",
          "type": "address"
        },
        {
          "indexed": true,
          "internalType": "address",
          "name": "newOwner",
          "type": "address"
        }
      ],
      "name": "OwnershipTransferred",
      "type": "event"
    },
    {
      "inputs": [],
      "name": "currentGameId",
      "outputs": [
        {
          "internalType": "uint256",
          "name": "",
          "type": "uint256"
        }
      ],
      "stateMutability": "view",
      "type": "function"
    },
    {
      "inputs": [
        {
          "internalType": "uint256",
          "name": "_id",
          "type": "uint256"
        },
        {
          "internalType": "uint256",
          "name": "startPos",
          "type": "uint256"
        }
      ],
      "name": "draw",
      "outputs": [
        {
          "internalType": "bool",
          "name": "",
          "type": "bool"
        }
      ],
      "stateMutability": "nonpayable",
      "type": "function"
    },
    {
      "inputs": [],
      "name": "drawTimeDuration",
      "outputs": [
        {
          "internalType": "uint256",
          "name": "",
          "type": "uint256"
        }
      ],
      "stateMutability": "view",
      "type": "function"
    },
    {
      "inputs": [
        {
          "internalType": "uint32",
          "name": "_pos",
          "type": "uint32"
        }
      ],
      "name": "entry",
      "outputs": [
        {
          "internalType": "bool",
          "name": "",
          "type": "bool"
        }
      ],
      "stateMutability": "nonpayable",
      "type": "function"
    },
    {
      "inputs": [],
      "name": "entryTimeDuration",
      "outputs": [
        {
          "internalType": "uint256",
          "name": "",
          "type": "uint256"
        }
      ],
      "stateMutability": "view",
      "type": "function"
    },
    {
      "inputs": [
        {
          "internalType": "uint256",
          "name": "_id",
          "type": "uint256"
        }
      ],
      "name": "game",
      "outputs": [
        {
          "components": [
            {
              "internalType": "uint256",
              "name": "id",
              "type": "uint256"
            },
            {
              "internalType": "uint256",
              "name": "startTime",
              "type": "uint256"
            },
            {
              "internalType": "uint256",
              "name": "drawingStartTime",
              "type": "uint256"
            },
            {
              "internalType": "uint256",
              "name": "endTime",
              "type": "uint256"
            },
            {
              "internalType": "address[]",
              "name": "players",
              "type": "address[]"
            }
          ],
          "internalType": "struct Amidakuji.BeforeRevealGame",
          "name": "",
          "type": "tuple"
        }
      ],
      "stateMutability": "view",
      "type": "function"
    },
    {
      "inputs": [],
      "name": "owner",
      "outputs": [
        {
          "internalType": "address",
          "name": "",
          "type": "address"
        }
      ],
      "stateMutability": "view",
      "type": "function"
    },
    {
      "inputs": [],
      "name": "renounceOwnership",
      "outputs": [],
      "stateMutability": "nonpayable",
      "type": "function"
    },
    {
      "inputs": [
        {
          "internalType": "uint256",
          "name": "_id",
          "type": "uint256"
        }
      ],
      "name": "result",
      "outputs": [
        {
          "components": [
            {
              "internalType": "uint256",
              "name": "id",
              "type": "uint256"
            },
            {
              "internalType": "uint256",
              "name": "startTime",
              "type": "uint256"
            },
            {
              "internalType": "uint256",
              "name": "endTime",
              "type": "uint256"
            },
            {
              "internalType": "uint256",
              "name": "atariPos",
              "type": "uint256"
            },
            {
              "internalType": "address",
              "name": "winner",
              "type": "address"
            },
            {
              "internalType": "address[]",
              "name": "players",
              "type": "address[]"
            },
            {
              "internalType": "uint256[]",
              "name": "playersPos",
              "type": "uint256[]"
            },
            {
              "internalType": "uint256[]",
              "name": "lines",
              "type": "uint256[]"
            }
          ],
          "internalType": "struct Amidakuji.AfterRevealGame",
          "name": "",
          "type": "tuple"
        }
      ],
      "stateMutability": "view",
      "type": "function"
    },
    {
      "inputs": [
        {
          "internalType": "uint256",
          "name": "_id",
          "type": "uint256"
        }
      ],
      "name": "reveal",
      "outputs": [],
      "stateMutability": "nonpayable",
      "type": "function"
    },
    {
      "inputs": [
        {
          "internalType": "address",
          "name": "newOwner",
          "type": "address"
        }
      ],
      "name": "transferOwnership",
      "outputs": [],
      "stateMutability": "nonpayable",
      "type": "function"
    }
  ],
  "bytecode": "0x60806040526201518060025561025860035534801561001d57600080fd5b5061002733610031565b6000600155610081565b600080546001600160a01b038381166001600160a01b0319831681178455604051919092169283917f8be0079c531659141344cd1fd0a4f28419497f9722a3daafe3b4186f6b6457e09190a35050565b611201806100906000396000f3fe608060405234801561001057600080fd5b50600436106100a95760003560e01c80638da5cb5b116100715780638da5cb5b1461010a578063c2ca0ac514610125578063cddbe72914610138578063d027896f14610158578063d2b8035a1461017b578063f2fde38b1461018e57600080fd5b80633c594059146100ae578063536a3ddc146100d7578063715018a6146100ee5780637791979c146100f857806379165e2114610101575b600080fd5b6100c16100bc366004610f2c565b6101a1565b6040516100ce9190610fb9565b60405180910390f35b6100e060015481565b6040519081526020016100ce565b6100f661041a565b005b6100e060025481565b6100e060035481565b6000546040516001600160a01b0390911681526020016100ce565b6100f6610133366004610f2c565b61042e565b61014b610146366004610f2c565b6104c5565b6040516100ce9190611060565b61016b6101663660046110ab565b6105ec565b60405190151581526020016100ce565b61016b6101893660046110d1565b61084e565b6100f661019c3660046110f3565b610a52565b6101f26040518061010001604052806000815260200160008152602001600081526020016000815260200160006001600160a01b031681526020016060815260200160608152602001606081525090565b60008281526004602052604090206007015460ff16156102485760405162461bcd60e51b815260206004820152600c60248201526b139bdd081c995d99585b195960a21b60448201526064015b60405180910390fd5b60408051610100810182526000848152600460208181528483208054855260010154818501819052600354600254898652939092529294840192909161028d91611132565b6102979190611132565b81526000858152600460209081526040918290206003015490830152016102bd85610acb565b6001600160a01b031681526020016004600086815260200190815260200160002060040180548060200260200160405190810160405280929190818152602001828054801561033557602002820191906000526020600020905b81546001600160a01b03168152600190910190602001808311610317575b505050505081526020016004600086815260200190815260200160002060050180548060200260200160405190810160405280929190818152602001828054801561039f57602002820191906000526020600020905b81548152602001906001019080831161038b575b505050505081526020016004600086815260200190815260200160002060060180548060200260200160405190810160405280929190818152602001828054801561040957602002820191906000526020600020905b8154815260200190600101908083116103f5575b505050919092525090949350505050565b610422610c49565b61042c6000610ca3565b565b60035460025460008381526004602052604090206001015442929161045291611132565b61045c9190611132565b11156104aa5760405162461bcd60e51b815260206004820152601660248201527f4e6f7420456e6465642064726177696e672074696d6500000000000000000000604482015260640161023f565b6000908152600460205260409020600701805460ff19169055565b6104f76040518060a0016040528060008152602001600081526020016000815260200160008152602001606081525090565b6040805160a08101825260008481526004602081815284832080548552600101548185018190526002548885529290915291938301916105379190611132565b815260200160035460025460046000888152602001908152602001600020600101546105639190611132565b61056d9190611132565b81526020016004600086815260200190815260200160002060040180548060200260200160405190810160405280929190818152602001828054801561040957602002820191906000526020600020905b81546001600160a01b031681526001909101906020018083116105be57505050919092525090949350505050565b60015460008181526004602052604081206007015490919060ff1661063b576040805142602082015261063891016040516020818303038152906040528051906020012060001c610cf3565b90505b600254600082815260046020526040902060010154429161065b91611132565b1161069b5760405162461bcd60e51b815260206004820152601060248201526f456e64656420656e7472792074696d6560801b604482015260640161023f565b60005b6000828152600460208190526040909120015481101561074c576000828152600460208190526040909120018054339190839081106106df576106df61114a565b6000918252602090912001546001600160a01b0316141561073a5760405162461bcd60e51b8152602060048201526015602482015274416c726561647920706c617965722065786973747360581b604482015260640161023f565b8061074481611160565b91505061069e565b5060005b6000828152600460205260409020600501548110156107f5576000828152600460205260409020600501805463ffffffff86169190839081106107955761079561114a565b906000526020600020015414156107e35760405162461bcd60e51b8152602060048201526012602482015271416c726561647920706f732065786973747360701b604482015260640161023f565b806107ed81611160565b915050610750565b50600090815260046020818152604083209182018054600181810183559185528285200180546001600160a01b03191633179055600590920180548084018255908452922063ffffffff90941693909101929092555090565b600254600083815260046020526040812060010154909142916108719190611132565b106108be5760405162461bcd60e51b815260206004820152601860248201527f4e6f7420537461727465642064726177696e672074696d650000000000000000604482015260640161023f565b6003546002546000858152600460205260409020600101544292916108e291611132565b6108ec9190611132565b1161092e5760405162461bcd60e51b8152602060048201526012602482015271456e6465642064726177696e672074696d6560701b604482015260640161023f565b6000805b600085815260046020819052604090912001548110156109a5576000858152600460208190526040909120018054339190839081106109735761097361114a565b6000918252602090912001546001600160a01b0316141561099357600191505b8061099d81611160565b915050610932565b50806109e45760405162461bcd60e51b815260206004820152600e60248201526d446f6573206e6f7420656e74727960901b604482015260640161023f565b6005831115610a285760405162461bcd60e51b815260206004820152601060248201526f24b73b30b634b2102837b9b4ba34b7b760811b604482015260640161023f565b50506000918252600460209081526040832060060180546001808201835591855291909320015590565b610a5a610c49565b6001600160a01b038116610abf5760405162461bcd60e51b815260206004820152602660248201527f4f776e61626c653a206e6577206f776e657220697320746865207a65726f206160448201526564647265737360d01b606482015260840161023f565b610ac881610ca3565b50565b6000818152600460205260408120600381015460069091015482908190610af49060019061117b565b90505b6000858152600460205260409020600601805484919083908110610b1d57610b1d61114a565b90600052602060002001541415610b4057610b39836001611132565b9250610b91565b6000858152600460205260409020600601805484919083908110610b6657610b6661114a565b90600052602060002001546001610b7d9190611132565b1415610b9157610b8e60018461117b565b92505b80610b9b81611192565b915050610af7565b600085815260046020526040902060050154811015610c41576000858152600460205260409020600501805484919083908110610be257610be261114a565b90600052602060002001541415610c2f57600085815260046020819052604090912001805482908110610c1757610c1761114a565b6000918252602090912001546001600160a01b031691505b80610c3981611160565b915050610ba3565b509392505050565b6000546001600160a01b0316331461042c5760405162461bcd60e51b815260206004820181905260248201527f4f776e61626c653a2063616c6c6572206973206e6f7420746865206f776e6572604482015260640161023f565b600080546001600160a01b038381166001600160a01b0319831681178455604051919092169283917f8be0079c531659141344cd1fd0a4f28419497f9722a3daafe3b4186f6b6457e09190a35050565b6001805460009182610d0483611160565b9190505550600042905060608060606000604051806101000160405280600154815260200186815260200160068152602001610d41896006610e1a565b815260200185815260200184815260200183815260200160011515815250905080600460006001548152602001908152602001600020600082015181600001556020820151816001015560408201518160020155606082015181600301556080820151816004019080519060200190610dbb929190610e77565b5060a08201518051610dd7916005840191602090910190610edc565b5060c08201518051610df3916006840191602090910190610edc565b5060e091909101516007909101805460ff1916911515919091179055519695505050505050565b604080514260208201526bffffffffffffffffffffffff193360601b16918101919091526054810183905260009082906074016040516020818303038152906040528051906020012060001c610e7091906111a9565b9392505050565b828054828255906000526020600020908101928215610ecc579160200282015b82811115610ecc57825182546001600160a01b0319166001600160a01b03909116178255602090920191600190910190610e97565b50610ed8929150610f17565b5090565b828054828255906000526020600020908101928215610ecc579160200282015b82811115610ecc578251825591602001919060010190610efc565b5b80821115610ed85760008155600101610f18565b600060208284031215610f3e57600080fd5b5035919050565b600081518084526020808501945080840160005b83811015610f7e5781516001600160a01b031687529582019590820190600101610f59565b509495945050505050565b600081518084526020808501945080840160005b83811015610f7e57815187529582019590820190600101610f9d565b602081528151602082015260208201516040820152604082015160608201526060820151608082015260006080830151610ffe60a08401826001600160a01b03169052565b5060a08301516101008060c085015261101b610120850183610f45565b915060c0850151601f19808685030160e08701526110398483610f89565b935060e08701519150808685030183870152506110568382610f89565b9695505050505050565b60208152815160208201526020820151604082015260408201516060820152606082015160808201526000608083015160a0808401526110a360c0840182610f45565b949350505050565b6000602082840312156110bd57600080fd5b813563ffffffff81168114610e7057600080fd5b600080604083850312156110e457600080fd5b50508035926020909101359150565b60006020828403121561110557600080fd5b81356001600160a01b0381168114610e7057600080fd5b634e487b7160e01b600052601160045260246000fd5b600082198211156111455761114561111c565b500190565b634e487b7160e01b600052603260045260246000fd5b60006000198214156111745761117461111c565b5060010190565b60008282101561118d5761118d61111c565b500390565b6000816111a1576111a161111c565b506000190190565b6000826111c657634e487b7160e01b600052601260045260246000fd5b50069056fea2646970667358221220fa903a7067093c2fa3061a0a790aecd5859ecc5876e8d84e7c48f63d4dc5b6aa64736f6c634300080a0033",
  "linkReferences": {},
  "deployedLinkReferences": {}
}