{
  "_format": "hh-sol-artifact-1",
  "contractName": "AmidakujiSBT",
  "sourceName": "contracts/AmidakujiSBT.sol",
  "abi": [
    {
      "inputs": [],
      "stateMutability": "nonpayable",
      "type": "constructor"
    },
    {
      "anonymous": false,
      "inputs": [
        {
          "indexed": true,
          "internalType": "address",
          "name": "owner",
          "type": "address"
        },
        {
          "indexed": true,
          "internalType": "address",
          "name": "approved",
          "type": "address"
        },
        {
          "indexed": true,
          "internalType": "uint256",
          "name": "tokenId",
          "type": "uint256"
        }
      ],
      "name": "Approval",
      "type": "event"
    },
    {
      "anonymous": false,
      "inputs": [
        {
          "indexed": true,
          "internalType": "address",
          "name": "owner",
          "type": "address"
        },
        {
          "indexed": true,
          "internalType": "address",
          "name": "operator",
          "type": "address"
        },
        {
          "indexed": false,
          "internalType": "bool",
          "name": "approved",
          "type": "bool"
        }
      ],
      "name": "ApprovalForAll",
      "type": "event"
    },
    {
      "anonymous": false,
      "inputs": [
        {
          "indexed": true,
          "internalType": "address",
          "name": "previousOwner",
          "type": "address"
        },
        {
          "indexed": true,
          "internalType": "address",
          "name": "newOwner",
          "type": "address"
        }
      ],
      "name": "OwnershipTransferred",
      "type": "event"
    },
    {
      "anonymous": false,
      "inputs": [
        {
          "indexed": true,
          "internalType": "address",
          "name": "from",
          "type": "address"
        },
        {
          "indexed": true,
          "internalType": "address",
          "name": "to",
          "type": "address"
        },
        {
          "indexed": true,
          "internalType": "uint256",
          "name": "tokenId",
          "type": "uint256"
        }
      ],
      "name": "Transfer",
      "type": "event"
    },
    {
      "inputs": [
        {
          "internalType": "address",
          "name": "to",
          "type": "address"
        },
        {
          "internalType": "uint256",
          "name": "tokenId",
          "type": "uint256"
        }
      ],
      "name": "approve",
      "outputs": [],
      "stateMutability": "nonpayable",
      "type": "function"
    },
    {
      "inputs": [
        {
          "internalType": "address",
          "name": "owner",
          "type": "address"
        }
      ],
      "name": "balanceOf",
      "outputs": [
        {
          "internalType": "uint256",
          "name": "",
          "type": "uint256"
        }
      ],
      "stateMutability": "view",
      "type": "function"
    },
    {
      "inputs": [
        {
          "internalType": "uint256",
          "name": "tokenId",
          "type": "uint256"
        }
      ],
      "name": "getApproved",
      "outputs": [
        {
          "internalType": "address",
          "name": "",
          "type": "address"
        }
      ],
      "stateMutability": "view",
      "type": "function"
    },
    {
      "inputs": [
        {
          "internalType": "address",
          "name": "owner",
          "type": "address"
        },
        {
          "internalType": "address",
          "name": "operator",
          "type": "address"
        }
      ],
      "name": "isApprovedForAll",
      "outputs": [
        {
          "internalType": "bool",
          "name": "",
          "type": "bool"
        }
      ],
      "stateMutability": "view",
      "type": "function"
    },
    {
      "inputs": [
        {
          "internalType": "uint32",
          "name": "_gameId",
          "type": "uint32"
        }
      ],
      "name": "mintItem",
      "outputs": [
        {
          "internalType": "uint32",
          "name": "",
          "type": "uint32"
        }
      ],
      "stateMutability": "nonpayable",
      "type": "function"
    },
    {
      "inputs": [],
      "name": "name",
      "outputs": [
        {
          "internalType": "string",
          "name": "",
          "type": "string"
        }
      ],
      "stateMutability": "view",
      "type": "function"
    },
    {
      "inputs": [],
      "name": "owner",
      "outputs": [
        {
          "internalType": "address",
          "name": "",
          "type": "address"
        }
      ],
      "stateMutability": "view",
      "type": "function"
    },
    {
      "inputs": [
        {
          "internalType": "uint256",
          "name": "tokenId",
          "type": "uint256"
        }
      ],
      "name": "ownerOf",
      "outputs": [
        {
          "internalType": "address",
          "name": "",
          "type": "address"
        }
      ],
      "stateMutability": "view",
      "type": "function"
    },
    {
      "inputs": [],
      "name": "renounceOwnership",
      "outputs": [],
      "stateMutability": "nonpayable",
      "type": "function"
    },
    {
      "inputs": [
        {
          "internalType": "address",
          "name": "from",
          "type": "address"
        },
        {
          "internalType": "address",
          "name": "to",
          "type": "address"
        },
        {
          "internalType": "uint256",
          "name": "tokenId",
          "type": "uint256"
        }
      ],
      "name": "safeTransferFrom",
      "outputs": [],
      "stateMutability": "nonpayable",
      "type": "function"
    },
    {
      "inputs": [
        {
          "internalType": "address",
          "name": "from",
          "type": "address"
        },
        {
          "internalType": "address",
          "name": "to",
          "type": "address"
        },
        {
          "internalType": "uint256",
          "name": "tokenId",
          "type": "uint256"
        },
        {
          "internalType": "bytes",
          "name": "data",
          "type": "bytes"
        }
      ],
      "name": "safeTransferFrom",
      "outputs": [],
      "stateMutability": "nonpayable",
      "type": "function"
    },
    {
      "inputs": [
        {
          "internalType": "address",
          "name": "_address",
          "type": "address"
        }
      ],
      "name": "setAmidakujiContractAddress",
      "outputs": [],
      "stateMutability": "nonpayable",
      "type": "function"
    },
    {
      "inputs": [
        {
          "internalType": "address",
          "name": "operator",
          "type": "address"
        },
        {
          "internalType": "bool",
          "name": "approved",
          "type": "bool"
        }
      ],
      "name": "setApprovalForAll",
      "outputs": [],
      "stateMutability": "nonpayable",
      "type": "function"
    },
    {
      "inputs": [
        {
          "internalType": "bytes4",
          "name": "interfaceId",
          "type": "bytes4"
        }
      ],
      "name": "supportsInterface",
      "outputs": [
        {
          "internalType": "bool",
          "name": "",
          "type": "bool"
        }
      ],
      "stateMutability": "view",
      "type": "function"
    },
    {
      "inputs": [],
      "name": "symbol",
      "outputs": [
        {
          "internalType": "string",
          "name": "",
          "type": "string"
        }
      ],
      "stateMutability": "view",
      "type": "function"
    },
    {
      "inputs": [
        {
          "internalType": "uint256",
          "name": "index",
          "type": "uint256"
        }
      ],
      "name": "tokenByIndex",
      "outputs": [
        {
          "internalType": "uint256",
          "name": "",
          "type": "uint256"
        }
      ],
      "stateMutability": "view",
      "type": "function"
    },
    {
      "inputs": [
        {
          "internalType": "uint256",
          "name": "_gameId",
          "type": "uint256"
        }
      ],
      "name": "tokenImage",
      "outputs": [
        {
          "internalType": "string",
          "name": "",
          "type": "string"
        }
      ],
      "stateMutability": "view",
      "type": "function"
    },
    {
      "inputs": [
        {
          "internalType": "address",
          "name": "owner",
          "type": "address"
        },
        {
          "internalType": "uint256",
          "name": "index",
          "type": "uint256"
        }
      ],
      "name": "tokenOfOwnerByIndex",
      "outputs": [
        {
          "internalType": "uint256",
          "name": "",
          "type": "uint256"
        }
      ],
      "stateMutability": "view",
      "type": "function"
    },
    {
      "inputs": [
        {
          "internalType": "uint256",
          "name": "_tokenId",
          "type": "uint256"
        }
      ],
      "name": "tokenURI",
      "outputs": [
        {
          "internalType": "string",
          "name": "",
          "type": "string"
        }
      ],
      "stateMutability": "view",
      "type": "function"
    },
    {
      "inputs": [],
      "name": "totalSupply",
      "outputs": [
        {
          "internalType": "uint256",
          "name": "",
          "type": "uint256"
        }
      ],
      "stateMutability": "view",
      "type": "function"
    },
    {
      "inputs": [
        {
          "internalType": "address",
          "name": "from",
          "type": "address"
        },
        {
          "internalType": "address",
          "name": "to",
          "type": "address"
        },
        {
          "internalType": "uint256",
          "name": "tokenId",
          "type": "uint256"
        }
      ],
      "name": "transferFrom",
      "outputs": [],
      "stateMutability": "nonpayable",
      "type": "function"
    },
    {
      "inputs": [
        {
          "internalType": "address",
          "name": "newOwner",
          "type": "address"
        }
      ],
      "name": "transferOwnership",
      "outputs": [],
      "stateMutability": "nonpayable",
      "type": "function"
    }
  ],
  "bytecode": "0x60806040523480156200001157600080fd5b50604080518082018252600c81526b105b5a59185add5a9a54d09560a21b602080830191825283518085019094526005845264414d49444160d81b9084015281519192916200006391600091620000f2565b50805162000079906001906020840190620000f2565b50505062000096620000906200009c60201b60201c565b620000a0565b620001d5565b3390565b600a80546001600160a01b038381166001600160a01b0319831681179093556040519116919082907f8be0079c531659141344cd1fd0a4f28419497f9722a3daafe3b4186f6b6457e090600090a35050565b828054620001009062000198565b90600052602060002090601f0160209004810192826200012457600085556200016f565b82601f106200013f57805160ff19168380011785556200016f565b828001600101855582156200016f579182015b828111156200016f57825182559160200191906001019062000152565b506200017d92915062000181565b5090565b5b808211156200017d576000815560010162000182565b600181811c90821680620001ad57607f821691505b60208210811415620001cf57634e487b7160e01b600052602260045260246000fd5b50919050565b612dda80620001e56000396000f3fe608060405234801561001057600080fd5b50600436106101425760003560e01c806370a08231116100b8578063b88d4fde1161007c578063b88d4fde146102a4578063c87b56dd146102b7578063cdcffa3f146102ca578063cf348425146102dd578063e985e9c5146102f0578063f2fde38b1461032c57600080fd5b806370a082311461025d578063715018a6146102705780638da5cb5b1461027857806395d89b4114610289578063a22cb4651461029157600080fd5b806323b872dd1161010a57806323b872dd146101d65780632f745c59146101e957806332b33f7c146101fc57806342842e0e146102245780634f6ccce7146102375780636352211e1461024a57600080fd5b806301ffc9a71461014757806306fdde031461016f578063081812fc14610184578063095ea7b3146101af57806318160ddd146101c4575b600080fd5b61015a610155366004611c54565b61033f565b60405190151581526020015b60405180910390f35b610177610350565b6040516101669190611cd0565b610197610192366004611ce3565b6103e2565b6040516001600160a01b039091168152602001610166565b6101c26101bd366004611d11565b610409565b005b6008545b604051908152602001610166565b6101c26101e4366004611d3d565b610524565b6101c86101f7366004611d11565b610555565b61020f61020a366004611d7e565b6105eb565b60405163ffffffff9091168152602001610166565b6101c2610232366004611d3d565b610740565b6101c8610245366004611ce3565b61075b565b610197610258366004611ce3565b6107ee565b6101c861026b366004611da4565b61084e565b6101c26108d4565b600a546001600160a01b0316610197565b6101776108e8565b6101c261029f366004611dcf565b6108f7565b6101c26102b2366004611ec5565b610906565b6101776102c5366004611ce3565b61093e565b6101c26102d8366004611da4565b610a0b565b6101776102eb366004611ce3565b610a35565b61015a6102fe366004611f74565b6001600160a01b03918216600090815260056020908152604080832093909416825291909152205460ff1690565b6101c261033a366004611da4565b610a5d565b600061034a82610ad6565b92915050565b60606000805461035f90611fa2565b80601f016020809104026020016040519081016040528092919081815260200182805461038b90611fa2565b80156103d85780601f106103ad576101008083540402835291602001916103d8565b820191906000526020600020905b8154815290600101906020018083116103bb57829003601f168201915b5050505050905090565b60006103ed82610afb565b506000908152600460205260409020546001600160a01b031690565b6000610414826107ee565b9050806001600160a01b0316836001600160a01b031614156104875760405162461bcd60e51b815260206004820152602160248201527f4552433732313a20617070726f76616c20746f2063757272656e74206f776e656044820152603960f91b60648201526084015b60405180910390fd5b336001600160a01b03821614806104a357506104a381336102fe565b6105155760405162461bcd60e51b815260206004820152603e60248201527f4552433732313a20617070726f76652063616c6c6572206973206e6f7420746f60448201527f6b656e206f776e6572206e6f7220617070726f76656420666f7220616c6c0000606482015260840161047e565b61051f8383610b5a565b505050565b61052e3382610bc8565b61054a5760405162461bcd60e51b815260040161047e90611fdd565b61051f838383610c47565b60006105608361084e565b82106105c25760405162461bcd60e51b815260206004820152602b60248201527f455243373231456e756d657261626c653a206f776e657220696e646578206f7560448201526a74206f6620626f756e647360a81b606482015260840161047e565b506001600160a01b03919091166000908152600660209081526040808320938352929052205490565b600b54604051633c59405960e01b815263ffffffff8316600482015260009182916001600160a01b0390911690633c59405990602401600060405180830381865afa15801561063e573d6000803e3d6000fd5b505050506040513d6000823e601f3d908101601f1916820160405261066691908101906122b4565b60808101519091506001600160a01b031633146106c55760405162461bcd60e51b815260206004820152601b60248201527f4572726f723a2053656e646572206973206e6f742077696e6e65720000000000604482015260640161047e565b63ffffffff83166000908152600260205260409020546001600160a01b0316156107295760405162461bcd60e51b8152602060048201526015602482015274115c9c9bdc8e88105b1c9958591e481b5a5b9d1959605a1b604482015260640161047e565b610739338463ffffffff16610dee565b5090919050565b61051f83838360405180602001604052806000815250610906565b600061076660085490565b82106107c95760405162461bcd60e51b815260206004820152602c60248201527f455243373231456e756d657261626c653a20676c6f62616c20696e646578206f60448201526b7574206f6620626f756e647360a01b606482015260840161047e565b600882815481106107dc576107dc61241e565b90600052602060002001549050919050565b6000818152600260205260408120546001600160a01b03168061034a5760405162461bcd60e51b8152602060048201526018602482015277115490cdcc8c4e881a5b9d985b1a59081d1bdad95b88125160421b604482015260640161047e565b60006001600160a01b0382166108b85760405162461bcd60e51b815260206004820152602960248201527f4552433732313a2061646472657373207a65726f206973206e6f7420612076616044820152683634b21037bbb732b960b91b606482015260840161047e565b506001600160a01b031660009081526003602052604090205490565b6108dc610e08565b6108e66000610e62565b565b60606001805461035f90611fa2565b610902338383610eb4565b5050565b6109103383610bc8565b61092c5760405162461bcd60e51b815260040161047e90611fdd565b61093884848484610f83565b50505050565b6000818152600260205260409020546060906001600160a01b031661099d5760405162461bcd60e51b81526020600482015260156024820152741d1bdad95b955492481a5cc81b9bdd08195e1a5cdd605a1b604482015260640161047e565b60006109a883610fb6565b90506109e46109b684611244565b6109bf83611342565b6040516020016109d0929190612434565b604051602081830303815290604052611342565b6040516020016109f49190612539565b604051602081830303815290604052915050919050565b610a13610e08565b600b80546001600160a01b0319166001600160a01b0392909216919091179055565b60606000610a4283610fb6565b9050610a4d81611342565b6040516020016109f4919061257e565b610a65610e08565b6001600160a01b038116610aca5760405162461bcd60e51b815260206004820152602660248201527f4f776e61626c653a206e6577206f776e657220697320746865207a65726f206160448201526564647265737360d01b606482015260840161047e565b610ad381610e62565b50565b60006001600160e01b0319821663780e9d6360e01b148061034a575061034a82611496565b6000818152600260205260409020546001600160a01b0316610ad35760405162461bcd60e51b8152602060048201526018602482015277115490cdcc8c4e881a5b9d985b1a59081d1bdad95b88125160421b604482015260640161047e565b600081815260046020526040902080546001600160a01b0319166001600160a01b0384169081179091558190610b8f826107ee565b6001600160a01b03167f8c5be1e5ebec7d5bd14f71427d1e84f3dd0314c0f7b2291e5b200ac8c7c3b92560405160405180910390a45050565b600080610bd4836107ee565b9050806001600160a01b0316846001600160a01b03161480610c1b57506001600160a01b0380821660009081526005602090815260408083209388168352929052205460ff165b80610c3f5750836001600160a01b0316610c34846103e2565b6001600160a01b0316145b949350505050565b826001600160a01b0316610c5a826107ee565b6001600160a01b031614610cbe5760405162461bcd60e51b815260206004820152602560248201527f4552433732313a207472616e736665722066726f6d20696e636f72726563742060448201526437bbb732b960d91b606482015260840161047e565b6001600160a01b038216610d205760405162461bcd60e51b8152602060048201526024808201527f4552433732313a207472616e7366657220746f20746865207a65726f206164646044820152637265737360e01b606482015260840161047e565b610d2b8383836114e6565b610d36600082610b5a565b6001600160a01b0383166000908152600360205260408120805460019290610d5f9084906125d9565b90915550506001600160a01b0382166000908152600360205260408120805460019290610d8d9084906125f0565b909155505060008181526002602052604080822080546001600160a01b0319166001600160a01b0386811691821790925591518493918716917fddf252ad1be2c89b69c2b068fc378daa952ba7f163c4a11628f55a4df523b3ef91a4505050565b610902828260405180602001604052806000815250611548565b600a546001600160a01b031633146108e65760405162461bcd60e51b815260206004820181905260248201527f4f776e61626c653a2063616c6c6572206973206e6f7420746865206f776e6572604482015260640161047e565b600a80546001600160a01b038381166001600160a01b0319831681179093556040519116919082907f8be0079c531659141344cd1fd0a4f28419497f9722a3daafe3b4186f6b6457e090600090a35050565b816001600160a01b0316836001600160a01b03161415610f165760405162461bcd60e51b815260206004820152601960248201527f4552433732313a20617070726f766520746f2063616c6c657200000000000000604482015260640161047e565b6001600160a01b03838116600081815260056020908152604080832094871680845294825291829020805460ff191686151590811790915591519182527f17307eab39ab6107e8899845ad3d59bd9653f200f220920489ca2b5937696c31910160405180910390a3505050565b610f8e848484610c47565b610f9a8484848461157b565b6109385760405162461bcd60e51b815260040161047e90612608565b600b54604051633c59405960e01b8152600481018390526060916000916001600160a01b0390911690633c59405990602401600060405180830381865afa158015611005573d6000803e3d6000fd5b505050506040513d6000823e601f3d908101601f1916820160405261102d91908101906122b4565b905060006040518060600160405280603f8152602001612c9f603f91396040518060c0016040528060878152602001612d1e6087913960405160200161107492919061265a565b604051602081830303815290604052905060005b8260c001515181101561111e57816110e98460c0015183815181106110af576110af61241e565b602002602001015160ff16605f6110c69190612689565b8560e0015184815181106110dc576110dc61241e565b6020026020010151611679565b6040516020016110fa92919061265a565b60405160208183030381529060405291508080611116906126a8565b915050611088565b5060005b60068110156111dd5760005b600c8110156111ca57836101400151828151811061114e5761114e61241e565b602002602001015181600c81106111675761116761241e565b60200201511515600114156111b8578261119561118584605f612689565b611190846032612689565b6116b7565b6040516020016111a692919061265a565b60405160208183030381529060405292505b806111c2816126a8565b91505061112e565b50806111d5816126a8565b915050611122565b50806111fb836060015160ff1660646111f69190612689565b611872565b604051806040016040528060068152602001651e17b9bb339f60d11b81525060405160200161122c939291906126c3565b60405160208183030381529060405292505050919050565b6060816112685750506040805180820190915260018152600360fc1b602082015290565b8160005b8115611292578061127c816126a8565b915061128b9050600a8361271c565b915061126c565b60008167ffffffffffffffff8111156112ad576112ad611e08565b6040519080825280601f01601f1916602001820160405280156112d7576020820181803683370190505b5090505b8415610c3f576112ec6001836125d9565b91506112f9600a86612730565b6113049060306125f0565b60f81b8183815181106113195761131961241e565b60200101906001600160f81b031916908160001a90535061133b600a8661271c565b94506112db565b606081516000141561136257505060408051602081019091526000815290565b6000604051806060016040528060408152602001612cde604091399050600060038451600261139191906125f0565b61139b919061271c565b6113a6906004612689565b67ffffffffffffffff8111156113be576113be611e08565b6040519080825280601f01601f1916602001820160405280156113e8576020820181803683370190505b509050600182016020820185865187015b80821015611454576003820191508151603f8160121c168501518453600184019350603f81600c1c168501518453600184019350603f8160061c168501518453600184019350603f81168501518453506001830192506113f9565b505060038651066001811461147057600281146114835761148b565b603d6001830353603d600283035361148b565b603d60018303535b509195945050505050565b60006001600160e01b031982166380ac58cd60e01b14806114c757506001600160e01b03198216635b5e139f60e01b145b8061034a57506301ffc9a760e01b6001600160e01b031983161461034a565b6001600160a01b0383161561153d5760405162461bcd60e51b815260206004820152601a60248201527f4572726f723a20544f4b454e20697320534f554c20424f554e44000000000000604482015260640161047e565b61051f8383836118a8565b6115528383611960565b61155f600084848461157b565b61051f5760405162461bcd60e51b815260040161047e90612608565b60006001600160a01b0384163b1561166e57604051630a85bd0160e11b81526001600160a01b0385169063150b7a02906115bf903390899088908890600401612744565b6020604051808303816000875af19250505080156115fa575060408051601f3d908101601f191682019092526115f791810190612780565b60015b611654573d808015611628576040519150601f19603f3d011682016040523d82523d6000602084013e61162d565b606091505b50805161164c5760405162461bcd60e51b815260040161047e90612608565b805181602001fd5b6001600160e01b031916630a85bd0160e11b149050610c3f565b506001949350505050565b606061168e611689601e856125d9565b611244565b826040516020016116a092919061279d565b604051602081830303815290604052905092915050565b606060006116c96116898560d26125f0565b6116d76116898560516125f0565b6116e56116898660446125f0565b6116f361168988606e6125f0565b604051602001611706949392919061281f565b60408051601f198184030181529190529050806117276116898560316125f0565b6117356116898660316125f0565b6117436116898760316125f0565b60405160200161175694939291906128eb565b60408051601f198184030181529190529050806117776116898660cb6125f0565b61178561168986604b6125f0565b604051602001611797939291906129c0565b60408051601f198184030181529190529050806117b86116898660bf6125f0565b6117c661168986604b6125f0565b6040516020016117d893929190612a63565b60408051601f198184030181529190529050806117f96116898660a06125f0565b61180761168986604b6125f0565b60405160200161181993929190612b24565b60408051601f1981840301815291905290508061183a6116898660936125f0565b61184861168986604b6125f0565b60405160200161185a93929190612bc7565b60408051808303601f19018152919052949350505050565b6060611882611689600f846125d9565b6040516020016118929190612c25565b6040516020818303038152906040529050919050565b6001600160a01b038316611903576118fe81600880546000838152600960205260408120829055600182018355919091527ff3f7a9fe364faab93b216da50a3214154f22a0a2b415b23a84c8169e8b636ee30155565b611926565b816001600160a01b0316836001600160a01b031614611926576119268382611aae565b6001600160a01b03821661193d5761051f81611b4b565b826001600160a01b0316826001600160a01b03161461051f5761051f8282611bfa565b6001600160a01b0382166119b65760405162461bcd60e51b815260206004820181905260248201527f4552433732313a206d696e7420746f20746865207a65726f2061646472657373604482015260640161047e565b6000818152600260205260409020546001600160a01b031615611a1b5760405162461bcd60e51b815260206004820152601c60248201527f4552433732313a20746f6b656e20616c7265616479206d696e74656400000000604482015260640161047e565b611a27600083836114e6565b6001600160a01b0382166000908152600360205260408120805460019290611a509084906125f0565b909155505060008181526002602052604080822080546001600160a01b0319166001600160a01b03861690811790915590518392907fddf252ad1be2c89b69c2b068fc378daa952ba7f163c4a11628f55a4df523b3ef908290a45050565b60006001611abb8461084e565b611ac591906125d9565b600083815260076020526040902054909150808214611b18576001600160a01b03841660009081526006602090815260408083208584528252808320548484528184208190558352600790915290208190555b5060009182526007602090815260408084208490556001600160a01b039094168352600681528383209183525290812055565b600854600090611b5d906001906125d9565b60008381526009602052604081205460088054939450909284908110611b8557611b8561241e565b906000526020600020015490508060088381548110611ba657611ba661241e565b6000918252602080832090910192909255828152600990915260408082208490558582528120556008805480611bde57611bde612c88565b6001900381819060005260206000200160009055905550505050565b6000611c058361084e565b6001600160a01b039093166000908152600660209081526040808320868452825280832085905593825260079052919091209190915550565b6001600160e01b031981168114610ad357600080fd5b600060208284031215611c6657600080fd5b8135611c7181611c3e565b9392505050565b60005b83811015611c93578181015183820152602001611c7b565b838111156109385750506000910152565b60008151808452611cbc816020860160208601611c78565b601f01601f19169290920160200192915050565b602081526000611c716020830184611ca4565b600060208284031215611cf557600080fd5b5035919050565b6001600160a01b0381168114610ad357600080fd5b60008060408385031215611d2457600080fd5b8235611d2f81611cfc565b946020939093013593505050565b600080600060608486031215611d5257600080fd5b8335611d5d81611cfc565b92506020840135611d6d81611cfc565b929592945050506040919091013590565b600060208284031215611d9057600080fd5b813563ffffffff81168114611c7157600080fd5b600060208284031215611db657600080fd5b8135611c7181611cfc565b8015158114610ad357600080fd5b60008060408385031215611de257600080fd5b8235611ded81611cfc565b91506020830135611dfd81611dc1565b809150509250929050565b634e487b7160e01b600052604160045260246000fd5b604051610180810167ffffffffffffffff81118282101715611e4257611e42611e08565b60405290565b604051610160810167ffffffffffffffff81118282101715611e4257611e42611e08565b604051601f8201601f1916810167ffffffffffffffff81118282101715611e9557611e95611e08565b604052919050565b600067ffffffffffffffff821115611eb757611eb7611e08565b50601f01601f191660200190565b60008060008060808587031215611edb57600080fd5b8435611ee681611cfc565b93506020850135611ef681611cfc565b925060408501359150606085013567ffffffffffffffff811115611f1957600080fd5b8501601f81018713611f2a57600080fd5b8035611f3d611f3882611e9d565b611e6c565b818152886020838501011115611f5257600080fd5b8160208401602083013760006020838301015280935050505092959194509250565b60008060408385031215611f8757600080fd5b8235611f9281611cfc565b91506020830135611dfd81611cfc565b600181811c90821680611fb657607f821691505b60208210811415611fd757634e487b7160e01b600052602260045260246000fd5b50919050565b6020808252602e908201527f4552433732313a2063616c6c6572206973206e6f7420746f6b656e206f776e6560408201526d1c881b9bdc88185c1c1c9bdd995960921b606082015260800190565b805160ff8116811461203c57600080fd5b919050565b805161203c81611cfc565b600067ffffffffffffffff82111561206657612066611e08565b5060051b60200190565b600082601f83011261208157600080fd5b81516020612091611f388361204c565b82815260059290921b840181019181810190868411156120b057600080fd5b8286015b848110156120d45780516120c781611cfc565b83529183019183016120b4565b509695505050505050565b600082601f8301126120f057600080fd5b81516020612100611f388361204c565b82815260059290921b8401810191818101908684111561211f57600080fd5b8286015b848110156120d4576121348161202b565b8352918301918301612123565b600082601f83011261215257600080fd5b81516020612162611f388361204c565b82815260059290921b8401810191818101908684111561218157600080fd5b8286015b848110156120d457805167ffffffffffffffff8111156121a55760008081fd5b8701603f810189136121b75760008081fd5b8481015160406121c9611f3883611e9d565b8281528b828486010111156121de5760008081fd5b6121ed83898301848701611c78565b8652505050918301918301612185565b6000601f838184011261220f57600080fd5b8251602061221f611f388361204c565b828152610180928302860182019282820191908885111561223f57600080fd5b8388015b858110156122a657898782011261225a5760008081fd5b612262611e1e565b808383018c8111156122745760008081fd5b835b8181101561229657805161228981611dc1565b8452928801928801612276565b5050855250928401928101612243565b509098975050505050505050565b6000602082840312156122c657600080fd5b815167ffffffffffffffff808211156122de57600080fd5b9083019061016082860312156122f357600080fd5b6122fb611e48565b82518152602083015160208201526040830151604082015261231f6060840161202b565b606082015261233060808401612041565b608082015260a08301518281111561234757600080fd5b61235387828601612070565b60a08301525060c08301518281111561236b57600080fd5b612377878286016120df565b60c08301525060e08301518281111561238f57600080fd5b61239b87828601612141565b60e08301525061010080840151838111156123b557600080fd5b6123c1888287016120df565b82840152505061012080840151838111156123db57600080fd5b6123e7888287016120df565b828401525050610140808401518381111561240157600080fd5b61240d888287016121fd565b918301919091525095945050505050565b634e487b7160e01b600052603260045260246000fd5b683d913730b6b2911d1160b91b815268416d6964616b756a6960b81b600982015261202360f01b60128201528251600090612476816014850160208801611c78565b701116113232b9b1b934b83a34b7b7111d1160791b6014918401918201527f7468697320746f6b656e20697320534254206f66204e6f756e7320416d6964616025820152636b756a6960e01b60458201527f222c2261747472696275746573223a5b5d2c22696d616765223a22646174613a6049820152741a5b5859d94bdcdd99cade1b5b0ed8985cd94d8d0b605a1b6069820152835161251e81607e840160208801611c78565b61227d60f01b607e9290910191820152608001949350505050565b7f646174613a6170706c69636174696f6e2f6a736f6e3b6261736536342c00000081526000825161257181601d850160208701611c78565b91909101601d0192915050565b7f646174613a696d6167652f7376672b786d6c3b6261736536342c0000000000008152600082516125b681601a850160208701611c78565b91909101601a0192915050565b634e487b7160e01b600052601160045260246000fd5b6000828210156125eb576125eb6125c3565b500390565b60008219821115612603576126036125c3565b500190565b60208082526032908201527f4552433732313a207472616e7366657220746f206e6f6e20455243373231526560408201527131b2b4bb32b91034b6b83632b6b2b73a32b960711b606082015260800190565b6000835161266c818460208801611c78565b835190830190612680818360208801611c78565b01949350505050565b60008160001904831182151516156126a3576126a36125c3565b500290565b60006000198214156126bc576126bc6125c3565b5060010190565b600084516126d5818460208901611c78565b8451908301906126e9818360208901611c78565b84519101906126fc818360208801611c78565b0195945050505050565b634e487b7160e01b600052601260045260246000fd5b60008261272b5761272b612706565b500490565b60008261273f5761273f612706565b500690565b60006001600160a01b038087168352808616602084015250836040830152608060608301526127766080830184611ca4565b9695505050505050565b60006020828403121561279257600080fd5b8151611c7181611c3e565b681e3a32bc3a103c1e9160b91b815282516000906127c2816009850160208801611c78565b7f2220793d2234302220666f6e742d73697a653d223332223e000000000000000060099184019182015283516127ff816021840160208801611c78565b661e17ba32bc3a1f60c91b60219290910191820152602801949350505050565b693c7061746820643d224d60b01b8152845160009061284581600a850160208a01611c78565b622e303160e81b600a91840191820152855161286881600d840160208a01611c78565b7f2e323976362e3235682d33372e34345636382e3737682d362e32357631382e37600d9290910191820152681bb416999b971a9aab60b91b602d82015284516128b8816036840160208901611c78565b6305c6e6e960e31b6036929091019182015283516128dd81603a840160208801611c78565b01603a019695505050505050565b600085516128fd818460208a01611c78565b6c3b169b17191ab4189c171b9bab60991b908301908152855161292781600d840160208a01611c78565b74171c9cb4199b971a9abb1899171a99b41b17191aab60591b600d9290910191820152845161295d816022840160208901611c78565b69171c9cb4199b971a1a2b60b11b60229290910191820152835161298881602c840160208801611c78565b7f2e39397a22207374796c653d2266696c6c3a23663333323263222f3e00000000602c92909101918201526048019695505050505050565b600084516129d2818460208901611c78565b693c7061746820643d224d60b01b90830190815284516129f981600a840160208901611c78565b630171c1a960e51b600a92909101918201528351612a1e81600e840160208801611c78565b7f2e303376362e3236682d31322e35315635362e32366831322e35317631382e37600e9290910191820152641bbd11179f60d91b602e82015260330195945050505050565b60008451612a75818460208901611c78565b693c7061746820643d224d60b01b9083019081528451612a9c81600a840160208901611c78565b63017199a160e51b600a92909101918201528351612ac181600e840160208801611c78565b612b19600e828401017f2e303376362e3236682d31322e35315635362e32366831322e35317631382e3781527f377a22207374796c653d2266696c6c3a23666666222f3e000000000000000000602082015260370190565b979650505050505050565b60008451612b36818460208901611c78565b693c7061746820643d224d60b01b9083019081528451612b5d81600a840160208901611c78565b63017181b160e51b600a92909101918201528351612b8281600e840160208801611c78565b7f2e303376362e3236682d31322e35325635362e32366831322e35327631382e37600e9290910191820152641bbd11179f60d91b602e82015260330195945050505050565b60008451612bd9818460208901611c78565b693c7061746820643d224d60b01b9083019081528451612c0081600a840160208901611c78565b630171a9a160e51b600a92909101918201528351612ac181600e840160208801611c78565b681e3a32bc3a103c1e9160b91b81528151600090612c4a816009850160208701611c78565b7f2220793d223638302220666f6e742d73697a653d223332223e573c2f746578746009939091019283015250601f60f91b6029820152602a01919050565b634e487b7160e01b600052603160045260246000fdfe3c7376672076696577426f783d223020302037303020373030222020786d6c6e733d22687474703a2f2f7777772e77332e6f72672f323030302f737667223e4142434445464748494a4b4c4d4e4f505152535455565758595a6162636465666768696a6b6c6d6e6f707172737475767778797a303132333435363738392b2f3c7061746820643d224d313130203530683576363030682d357a4d323035203530683576363030682d357a4d333030203530683576363030682d357a4d333935203530683576363030682d357a4d343930203530683576363030682d357a4d353835203530683576363030682d357a22207374796c653d2266696c6c3a23663333323263222f3ea2646970667358221220293573df8a74ed2fb71479e3dac5af9ef2ef6a4a010a89e80efa5ae2dace299464736f6c634300080a0033",
  "linkReferences": {},
  "deployedLinkReferences": {}
}